:020000040800F2
:10000000F01600209D010008570C0008530C000852
:10001000550C0008E501000811140008000000005C
:100020000000000000000000000000003B1300087A
:10003000E701000800000000391300083D13000824
:10004000B7010008B7010008B7010008B7010008B0
:10005000B7010008B7010008B7010008B7010008A0
:10006000B7010008B7010008B7010008B701000890
:10007000B7010008B7010008B7010008B701000880
:10008000B7010008B7010008B7010008B701000870
:10009000B7010008B7010008B7010008B701000860
:1000A000B7010008B7010008B7010008B701000850
:1000B000B7010008B7010008B7010008B701000840
:1000C000B7010008B7010008B7010008B701000830
:1000D000B7010008B7010008B7010008B701000820
:1000E000B7010008B7010008B7010008B701000810
:1000F000B7010008B7010008B7010008B701000800
:10010000000000000000000000000000B70100082F
:10011000B7010008B7010008B7010008B7010008DF
:10012000B7010008B7010008B7010008B7010008CF
:10013000B7010008B701000800000000000000003F
:10014000B7010008B7010008B7010008000000006F
:10015000000000000000000000000000000000009F
:100160000000000000000000B7010008B70100080F
:10017000B7010008000000000000000000000000BF
:1001800000000000B7010008DFF80CD000F018F8FC
:100190000048004731140008F01600200648804748
:1001A00006480047FEE7FEE7FEE7FEE7FEE7FEE75C
:1001B000FEE7FEE7FEE7FEE7A91300088901000855
:1001C000064C074D06E0E06840F0010394E80700A4
:1001D00098471034AC42F6D3FFF7DAFFA84700087F
:1001E000C8470008FEE7704710B5222001F042F82A
:1001F000F72001F015F8202001F03CF8BDE8104090
:10020000AFF3008010B5044C4021204600F0DCF82C
:100210000028F9D110BD00000004004870B5044664
:1002200000F0DCF80546601C02D004480078044465
:1002300000F0D4F8401BA042FAD370BD04000020A7
:100240002DE9F84FDFF864B100234FF0010C4FF0B7
:10025000030A4FF00F090BF1040EA0E00CFA03F6AD
:10026000324072D04C68022C01D0122C0ED1DC0826
:1002700000EB8408D8F820405D07EF0E09FA07F577
:10028000AC430D69BD402543C8F8205007685D00A8
:1002900091F804800AFA05F408F00308A74308FA65
:1002A00005F848EA0708C0F800804F68012F05D01C
:1002B000022F03D0112F01D0122F11D18768D1F84E
:1002C0000C80A74308FA05F848EA0708C0F8088038
:1002D0004768B7430E79C6F300169E403E4346601A
:1002E000C668A6438C68AC403443C4604C68E400E4
:1002F00054D52F4CA56945F00105A561A46923F0EB
:10030000030504F0010400942A4C2E19B4689D07DB
:100310002F0F09FA07F5AC43B0F1904F04D0264DEA
:10032000A84203D1012512E0002510E0234DA84288
:1003300001D102250BE0224DA84201D1032506E0A0
:10034000204DA84202D1042501E027E00525BD404B
:100350002543B560DBF800405D464E689443F603E4
:1003600000D514432C60DEF8004075464E68944377
:10037000B60300D514432C600C4D08352C684E682C
:100380009443F60200D514432C60084D0C352C68BC
:100390004E689443B60200D514432C605B1C0A6877
:1003A00032FA03F47FF45AAFBDE8F88F000401403D
:1003B000001002400000014000040048000800480E
:1003C000000C0048001000480069084000D00120DF
:1003D00070470AB181617047816270470148806847
:1003E0007047000004000020024881680278114430
:1003F0008160704704000020074810B5016841F093
:1004000010010160032000F04BF8002000F006F816
:1004100000F024F8002010BD0020024070B50D4D02
:1004200004464FF47A712878B1FBF0F00A49096864
:10043000B1FBF0F000F0F5FB48B9102C07D2002218
:100440002146501E00F00CF800206C6070BD0120A9
:1004500070BD000004000020000000207047000074
:10046000F0B40E4B1B680C46C3F30223C3F107051F
:10047000042D00D90425191D072901D2002300E00D
:10048000DB1E012606FA05F1491E214099409E40D7
:10049000761E16403143F0BC00F0DEBB0CED00E0F0
:1004A000064900F0070208684FF6FF03184040EACB
:1004B0000220034A10430860704700000CED00E082
:1004C0000000FA052DE9F0470F46050069D04A4EB5
:1004D000306800F00700B84209D2306820F0070009
:1004E00038433060306800F00700B84259D12878AE
:1004F000424C800705D56068A96820F0F0000843E9
:1005000060602878C0073DD06968012001290DD0BE
:10051000022923D05FF0020393FAA3F2B2FA82F227
:1005200042F02002520904D0226803E04FF4003365
:10053000F2E7626A93FAA3F3B3FA83F303F01F03BB
:10054000984002422DD0606820F0030008436060AC
:10055000FFF744FF804641F288390CE04FF000730A
:10056000DAE700BFFFF73AFFA0EB0801494502D9DF
:100570000320BDE8F0876068696800F00C00B0EB0C
:10058000810FEFD1306800F00700B8420BD9306816
:1005900020F0070038433060306800F00700B842B0
:1005A00001D00120E5E72878400705D56068E968B3
:1005B00020F4E060084360602878000706D5606892
:1005C000296920F4605040EAC100606000F022F820
:1005D0006168F02292FAA2F201F0F001B2FA82F21E
:1005E000D140074A515CC840064908600020FFF727
:1005F00015FF0020BDE7000000200240001002406F
:1006000068290008000000200148006870470000C9
:1006100000000020144B10B55A68144802F00C0179
:1006200004291DD008291BD14FF4701494FAA4F4A6
:1006300002F47011B4FA84F4E1400D4CDB6A615CA1
:100640000F2494FAA4F403F00F03B4FA84F4E34003
:10065000074C1034D203E35C03D5B0FBF3F04843FE
:1006600010BD0448484310BD0010024000127A003B
:100670008847000800093D002DE9F84F040071D0BB
:100680002078FB4DC0074FF0010625D0686877043D
:10069000C0F38100012807D06868C0F381000228F8
:1006A0001BD16868C00318D597FAA7F0B0FA80F09C
:1006B00040F02000400901D0286800E0686A97FAFD
:1006C000A7F1B1FA81F101F01F0106FA01F1084228
:1006D00065D060680028D2D061E06068B0F5803FE6
:1006E0000BD010B1B0F5A02F17D0286820F48030BF
:1006F0002860286820F4802002E0286840F48030D8
:100700002860E86AA16820F00F000843E86260688A
:1007100020B3FFF763FE80460AE0286840F480209B
:100720002860EAE7FFF75AFEA0EB0800642872D8B9
:1007300097FAA7F0B0FA80F040F02000400901D00D
:10074000286800E0686A97FAA7F1B1FA81F101F030
:100750001F0106FA01F10842E4D020E0FFF73EFE57
:10076000804607E0C7E000BFFFF738FEA0EB0800B7
:100770006428DCD897FAA7F0B0FA80F040F02000A7
:10078000400901D0286800E0686A97FAA7F1B1FA39
:1007900081F101F01F0106FA01F10842E4D120784D
:1007A000DFF8D08280074FF0000A4FF0020759D5DA
:1007B00068684FF0F80B10F00C0F07D06868C0F3B2
:1007C000810002281BD16868C00318D497FAA7F0EB
:1007D000B0FA80F040F02000400901D0286800E025
:1007E000686A97FAA7F1B1FA81F101F01F0106FAE0
:1007F00001F108422BD0206901287CD127E0206933
:1008000088B396FAA6F0B0FA80F048F82060FFF7B7
:10081000E5FD814606E055E1FFF7E0FDA0EB0900AC
:10082000022884D897FAA7F0B0FA80F040F02000B0
:10083000400901D0286800E0686A97FAA7F1B1FA88
:1008400081F101F01F0106FA01F10842E4D02868A5
:100850009BFAABF26169B2FA82F220F0F8009140A3
:100860000843286025E0FFE796FAA6F1B1FA81F186
:1008700048F821A0FFF7B2FD814605E0FFF7AEFD85
:10088000A0EB09000228CCD897FAA7F0B0FA80F0C4
:1008900040F02000400901D0286800E0686A97FA1B
:1008A000A7F1B1FA81F101F01F0106FA01F1084246
:1008B000E4D1207800076AD5A069A0B396FAA6F023
:1008C000B0FA80F008EB8000C0F88064FFF786FD86
:1008D000814605E0FFF782FDA0EB09000228A0D8C1
:1008E00097FAA7F0B0FA80F040F06000B6EB501F26
:1008F00002D128680CE077E197FAA7F0B0FA80F00F
:1009000040F06000B7EB501F01D1286A00E0686A30
:1009100097FAA7F1B1FA81F101F01F0106FA01F28D
:100920001042D7D033E0FFE796FAA6F0B0FA80F095
:1009300008EB8000C0F880A4FFF750FD814605E079
:10094000FFF74CFDA0EB090002289CD897FAA7F00E
:10095000B0FA80F040F06000B6EB501F01D128687B
:100960000BE097FAA7F0B0FA80F040F06000B7EB28
:10097000501F01D1286A00E0686A97FAA7F1B1FA1E
:1009800081F101F01F0106FA01F21042D8D120785E
:10099000400774D5E8694FF00009C00009D4E86940
:1009A00040F08050E861E8694FF0010900F08050A4
:1009B000009031480168C90512D4016841F4807182
:1009C0000160FFF70BFD834606E000BFFFF706FD61
:1009D000A0EB0B00642875D827480068C005F5D542
:1009E000E06801280AD008B1052811D0286A20F053
:1009F00001002862286A20F0040002E0286A40F022
:100A000001002862E068C8B3FFF7E8FC83460DE008
:100A1000286A40F004002862F0E700BFFFF7DEFC20
:100A2000A0EB0B0141F2883081424BD897FAA7F036
:100A3000B0FA80F040F04000B6EB501F01D12868BA
:100A40000BE097FAA7F0B0FA80F040F04000B7EB67
:100A5000501F01D1286A00E0686A97FAA7F1B1FA3D
:100A600081F101F01F0106FA01F21042D6D035E003
:100A700000100240000042420070004000E034E0FC
:100A8000FFF7ACFC834607E0FFF7A8FCA0EB0B01E7
:100A900041F28830814215D897FAA7F0B0FA80F079
:100AA00040F04000B6EB501F01D128680CE097FAE7
:100AB000A7F0B0FA80F040F04000B7EB501F02D131
:100AC000286A01E083E0686A97FAA7F1B1FA81F138
:100AD00001F01F0106FA01F21042D5D1B9F1000F61
:100AE00003D0E86920F08050E861E06980B369686C
:100AF000C1F38101022977D04FF080714F000228A5
:100B000009D091FAA1F0B0FA80F048F820A0FFF7E0
:100B100065FC04465EE050468A4691FAA1F1B1FABE
:100B200081F1C14648F82100FFF758FC804605E0F6
:100B3000FFF754FCA0EB0800022848D897FAA7F06A
:100B4000B0FA80F040F02000400902D0286801E0AF
:100B500056E0686A97FAA7F1B1FA81F101F01F0136
:100B600006FA01F10842E3D1D4E9081008436968A4
:100B700021F47411084368609AFAAAF0B0FA80F080
:100B800049F82060FFF72AFC044604E0FFF726FC42
:100B9000001B02281BD897FAA7F0B0FA80F040F0AB
:100BA0002000400901D0286800E0686A97FAA7F1A0
:100BB000B1FA81F101F01F0106FA01F10842E5D016
:100BC0001EE000BFFFF70AFC001B022802D9032029
:100BD000BDE8F88F97FAA7F0B0FA80F040F0200057
:100BE000400902D0286801E00CE0686A97FAA7F192
:100BF000B1FA81F101F01F0106FA01F10842E1D1D9
:100C00000020E5E70120E3E74FF0E0210428086930
:100C100003D020F004000861704740F00400FAE7B8
:100C2000704710B5401EB0F1807F01D3012010BD88
:100C30004FF0E02460610F21601700F00DF80020F4
:100C4000A06107202061002010BD10B5FFF7E8FF6C
:100C500010BDFEE7FEE770470907090E002806DA17
:100C600000F00F0000F1E02080F8141D704700F143
:100C7000E02080F80014704730B50021094AC3B263
:100C80000BE0002005E000BF01FB04041568401CD8
:100C90002B55D4698442F7D8491C106A8842F0D891
:100CA00030BD0000CC1200202DE9F0478146002520
:100CB0004FF494774FF01008242000F0DBFA002660
:100CC0005FF0000419F8050000F0AAFA641C6D1C1E
:100CD000BC42F7D3761C4645F2D3BDE8F047FFF798
:100CE00083BA2DE9F84F1F46914682468846151A69
:100CF00001D5A0EB09057C1A002C00DDCC1B4FF0C0
:100D0000FF32CA4501D2012000E010460090B845EC
:100D100000D2012293462E19414650460A9A00F00D
:100D200012F8B4EB460F04DCCA450AD000992644F9
:100D30008A44B5EB460FEFDBB84502D02E44D844C9
:100D4000EAE7BDE8F88F401E491E00F0C3BA2DE95E
:100D5000F8418046DDE907501E4617460C4640B96B
:100D60000BE023463A46194640460095FFF7B9FF87
:100D7000641CB442F5D3BDE8F8810B4640460095AB
:100D8000FFF7AFFF42463346214610460095FFF776
:100D9000A8FF3A462346314610460095FFF7A1FFCB
:100DA00033464246194638460095FFF79AFFE2E778
:100DB0002DE9F0412F4886B0416941F4800141613D
:100DC000416901F480010591416941F400314161BB
:100DD000416901F400310591416941F4801141619B
:100DE000416901F480110591416941F4802141611B
:100DF00040694FF0904600F4802005900122B02118
:100E00003046FFF7E6FA1C4F012204213846FFF76F
:100E1000E0FADFF86880012220214046FFF7D9FA86
:100E20000124B020CDE90004032569463046CDE910
:100E30000245FFF705FA0420CDE90004694638466B
:100E4000CDE90245FFF7FCF92020CDE90004694611
:100E50004046CDE90245FFF7F3F94020009001AA92
:100E6000002082E8310069464046FFF7E9F906B004
:100E7000BDE8F08100100240000C0048000400486A
:100E800010B5FFF795FF354C002204212046FFF7EF
:100E9000A0FA1420FFF7C2F9012204212046FFF72F
:100EA00098FA1420FFF7BAF9FFF7ACF9122000F016
:100EB000E1F9FFF7A7F9012000F0DCF9272000F0A5
:100EC000AFF9012000F0ACF9012000F0A9F91120E0
:100ED00000F0D0F9012000F0A3F9442000F0CAF995
:100EE000002000F09DF90F2000F09AF9452000F055
:100EF000C1F9272000F094F9012000F091F90020B9
:100F000000F08EF9002000F08BF93C2000F0B2F9DF
:100F1000052000F085F9212000F0ACF9002000F058
:100F20007FF9802000F07CF9182000F0A3F98020E0
:100F300000F076F94E2000F09DF9002000F070F9E5
:100F40004F2000F097F9272000F06AF9012000F007
:100F500067F9BDE81040FFF755B90000000C0048E4
:100F60000246012000E05043491EFCD270470000B9
:100F70002DE9FC4F4D1C00F101091C46AB46CDF894
:100F80000490082B0BD0600700D0012000EBD400A8
:100F900061084843203A82460020009245E006203E
:100FA000F8E7082C13D00C2C18D0102C1BD0182CC0
:100FB0003ED10098204900EBC00000BF01EB80014A
:100FC000002711F80860F00712D00B9A13E0009880
:100FD0001A4900EB400001EB4001F1E70098184985
:100FE00000EB4000EAE71749009801EB0011E7E742
:100FF0000B98F8B1002229464846FFF7A4FE760870
:101000006D1C7F1C082FDED309F10109082C09D0C3
:101010000198A9EB0000B0EB540F03D1DDF8049068
:101020000BF1080B5D4608F1010080465045B8D32E
:10103000BDE8FC8F0122DEE70436000878290008AD
:10104000A02B0008143000082DE9FF4F81B098460E
:101050005A0701D0012300E000234C1C03EBD80207
:1010600000F1010902FB08FAA3460025CDF8009023
:1010700042E000BFB8F1100F12D0B8F1180F14D031
:10108000B8F1200F19D0B8F1400F37D11E4903989D
:1010900001EB40200027465DF00714D00E9A15E0C2
:1010A0001A49039801EB4010F4E70398164900EB46
:1010B000C000C83901EBC000ECE713490398803940
:1010C00001EBC010E6E70E98D8B100222146484651
:1010D000FFF739FE7608641C7F1C082FDCD30099CB
:1010E00009F10109A9EB0101414503D1DDF80090A7
:1010F0000BF1080B5C466D1C5545BBD305B0BDE834
:10110000F08F0122E2E700008845000860430008F4
:101110002DE9F84F0025DDE90A691F4692468B4606
:101120008046082E00D10225002419E0391B0A2030
:10113000491EFFF715FFBAFBF0F00A21B0FBF1F2F0
:1011400001FB120205EB560101FB04803346CDF88A
:1011500000904AB159463032FFF70AFF641CE4B2EE
:10116000BC42E3D3BDE8F88F30225946F4E72DE9BD
:10117000FF4F441C82B04D1C92464FF00009AB4615
:101180000194580700D0012000EBD3000590002007
:1011900025E000201EE00F98002610F8097009F1E4
:1011A0000109F80724D0109800B3002229462046F0
:1011B000FFF7C9FD7F086D1C761C082EF1D301983E
:1011C000641C211A514502D1019C0BF1080B5D46AC
:1011D00008F1010080465045DDD30098401C009086
:1011E00005998842D5D306B0BDE8F08F0122DDE72E
:1011F000109ADBE72DE9F8411E461446884605465D
:10120000079F08E03346414628460097FFF7B0FEA7
:1012100005EB5605641C2278002AF3D1BDE8F8815D
:1012200070B505464FF09046002210213046FFF77A
:10123000D0F80024002220213046FFF7CAF8280603
:1012400001D5012200E0002280213046FFF7C1F8DD
:10125000012220213046FFF7BCF86806641C050E09
:10126000E4B2082CE6D33046BDE8704001221021DC
:10127000FFF7AFB870B5084C054600222021204684
:10128000FFF7A7F82846FFF7CBFF2046BDE87040E0
:1012900001222021FFF79DB80004004830B50C4C16
:1012A000039D44F80C0B4FEAD10084E826004D075B
:1012B000A4F10C0400D0401CA361C4E9070223B1CF
:1012C000B42B02D0C4E9011230BDC4E9012130BD04
:1012D000CC12002070B5174C2346A669DB68D6B146
:1012E00025465A2E2D6918D0B42E1BD0B6F5877F0F
:1012F00010D103460846E1692568414301EBD3015B
:101300008020002A6C5C03F0070220FA02F00DD066
:101310002043685470BD5B1A02E01B1A681A401E15
:101320005B1EE8E7281A0B46401EE4E784436C5432
:1013300070BD0000CC1200207047704710B5FFF759
:1013400053F8BDE81040FFF780BC30B58FB00121E5
:101350000804CDE900100024029402250491CDE98F
:1013600007504FF4E01009906846FFF785F90F2009
:10137000CDE90A056802CDE90C4002210AA80E94C5
:10138000FFF7A0F8FFF740F94FF47A71B0FBF1F0E6
:10139000FFF747FC0420FFF737FC00221146501EE0
:1013A000FFF75EF80FB030BD1448016841F47001DA
:1013B00001601348016841F0010101604168114A70
:1013C000114041600168104A11400160016821F438
:1013D00080210160416821F4FE014160C16A21F071
:1013E0000F01C162016B094A114001630021816054
:1013F0000249C003803908607047000088ED00E0B2
:10140000001002400CC07FF8FFFFF6FECCFC00FF8E
:10141000FEE702E008C8121F08C1002AFAD170478F
:101420007047002001E001C1121F002AFBD1704764
:101430001CB52025FEF7E0FFFFF787FFFFF720FD33
:10144000FF204FF49477009000233A4680217348A0
:10145000FFF724FFFF20FFF70FFCDFF8C4814FF0F8
:10146000100900244FF47A76FFF70AFDCDE90084D5
:10147000002180233A460846FFF779FE6748FFF7C8
:1014800013FC3046FEF7CAFE3046FEF7C7FE304674
:10149000FEF7C4FEFF20FFF7EFFBFFF7F1FC002291
:1014A000102311463D200094FFF7CEFD10230122AA
:1014B00000214D200094FFF7C7FD102302220021D8
:1014C0005D200094FFF7C0FD1023032200216D2052
:1014D0000094FFF7B9FD1023042200217D20009421
:1014E000FFF7B2FD1023052200218D200094FFF7A5
:1014F000ABFD1023062200219D200094FFF7A4FDE0
:10150000102307220021AD200094FFF79DFD10233A
:1015100008220021BD200094FFF796FD1023092228
:101520000021CD200094FFF78FFD10230A22002117
:10153000DD200094FFF788FD10233AA214216C20CF
:101540000094FFF757FE102339A228215020009461
:10155000FFF750FE102338A228219D200094FFF7AA
:1015600049FE10232A46282183200094FFF700FD1E
:10157000CDE9009403232A462821C620FFF7C8FDA1
:101580006D1CEDB27E2D00D9202510232CA2382110
:1015900021200094FFF72EFE102331A24921312093
:1015A0000094FFF727FE59233A461946012000947C
:1015B000FFF797FB102331A25A2135200094FFF743
:1015C00019FE102334A26A214B200094FFF712FE6B
:1015D0001248FFF769FB3046FEF720FE3046FEF763
:1015E0001DFE3046FEF71AFEFFF74AFC012100946B
:1015F00080233A4608460194FFF7A9FB0748FFF706
:1016000053FB3046FEF70AFE3046FEF707FE304633
:10161000FEF704FEFF20FFF72FFB25E71000002058
:10162000AC160008323031342F30352F3031000005
:1016300041534349493A0000434F44453A000000B2
:1016400057656C636F6D6520746F20322E39302DB5
:10165000696E636820452D7061706572000000003E
:101660007769746820323936207820313238207218
:1016700065736F6C7574696F6E0000005A686F6EE9
:10168000676A696E677975616E20456C656374720F
:101690006F6E696300000000546563686E6F6C6F65
:1016A000677920436F2E2C4C74642E0000000000DC
:1016B000000000000000000000000000000000002A
:1016C000000000000000000000000000000000001A
:1016D000000000000000000000000000000000000A
:1016E00000000000000000000000000000000000FA
:1016F00000000000000000000000000000000000EA
:1017000000000000000000000000000000000000D9
:101710000000000000000000F0F0F0F0F0F0F0F049
:10172000F0F0F0F0F0F0F0F0F0F0F0F0F0F0F0F0B9
:10173000F0F0F0F0F0F0F0F0F0F0F0F0F0F0F0F0A9
:10174000F0F0F0F0F0F0F0F0000000000000000019
:1017500000F0F0F0F0F0F0F0F0F0F0F0F0F0F0F079
:101760000000000000000000000000000000000079
:101770000000000000000000000000000000000069
:101780000000000000000000000000000000000059
:101790000000000000000000000000000000000049
:1017A0000000000000000000000000000000000039
:1017B0000000000000000000000000000000000029
:1017C0000000000000000000000000000000000019
:1017D000000000000000000000000060E0E0E0E029
:1017E0006060606060E0E0E08000000000000000F9
:1017F000000000000000000000000060606060E089
:10180000E0E06060606000000060E0E0E0E0800038
:10181000606060E0E06060E0E0E0E06000E0E0E0A8
:10182000E0E0600000000000000000000000000098
:1018300000000000000000000000000000000000A8
:10184000FFFFFFFFFFFFFFFFFFFFFFFFFFFFFFFFA8
:10185000FFFFFFFFFFFFFFFFFFFFFFFFFFFFFFFF98
:10186000FFFFFFFFFFFFFFFFFFFFFFFFFFFFFFFF88
:10187000000000000000000000FFFFFFFFFFFFFF6F
:10188000FFFFFFFFFFFFFFFF000000000000000060
:10189000C0C0C0C0C0C0C0C0C0C0C0C0C000000088
:1018A0000000000000000000000000000000C0C0B8
:1018B000C0C0C0C0C0C0C0C0C08080000000000068
:1018C0000000C0C0C0C00000000000C0C0C0C0C058
:1018D000C0C0C0C0C0C08080000000C0C0C0C0C0C8
:1018E000C0C0C0C0C0C0C0C000C0C0C0C0C0C0C0B8
:1018F000C0C0C0C0C08000000000000000000000A8
:1019000000000000FFFFFFFF303030FCFCFC000354
:101910000300000030303030303030303030303084
:1019200030000000000000FFFFFF0000000000008A
:101930000000FFFFFF0F3FFEF8F8C0FFFF0000FFB1
:10194000FFFFFF7C7EFFFFE381000000000000003E
:101950000000000000000000000000000000000087
:101960000000000000000000FFFFFFFFFFFFFFFF7F
:10197000FFFFFFFFFFFFFF03030303030303030353
:10198000030303030303030303FFFFFFFFFFFFFF43
:10199000FFFFFFFFFFFFFFFF00000000000000004F
:1019A000000303030303030303030303030303030A
:1019B000000000000000000000FFFFFFFF6060600B
:1019C00060F8F901070700006060606060606060B7
:1019D00060606060600000FFFFFFFFC0C0C0E0E12A
:1019E000E17F7F3F00000000F0FF9F87FFFFFEE0E8
:1019F0000000000000FFFFFFC0C0C0C0E0E17F7F2B
:101A00003F3F0000FFFFFFFF606060F8F9F901074A
:101A10000700FFFFFFFF6060E0E0E0F13F3F1F00D5
:101A20000000000000000000000000303F3F3F3F8A
:101A3000303030313131383E0E00000000000000FF
:101A40000000000000000000000000303030303F97
:101A50003F3F30303030000030303F3F3F303000CB
:101A600007071F3F3F00303F3F3F3F300001013736
:101A70003F3E383030000000000000000000000051
:101A80000000000000000000000000000000000056
:101A900083C3C3C3C3C3C3C3C3C3C3C3C3C3C3C059
:101AA000C0C0C0C0C0C0C0C0C0C0C0C0C0C0C0C036
:101AB000C0FFFFFFFFFFFFFFFFFFFFFFFFFFFFFF75
:101AC000000000000000000000FFFFFFFFFFFFFF1D
:101AD000FFFFFFFFFFFFFFFF00000000000000000E
:101AE000607F7F7F7F606060606363707C1C00004C
:101AF0000000000000000000000000000060607FA7
:101B00007F7F7F60600000000000000060787F7FC2
:101B10006F6101010101677F7F706060607F7F7F7F
:101B20006060600000000000000000607F7F7F7F39
:101B3000606060636363707C1C607F7F7F7F600098
:101B40000107071F7E7C706000000000000000009D
:101B50000000000000000000000000000000000085
:101B60000000000000000000000000000000000075
:101B70000000000000000000000000000000000065
:101B80000000000000000000000000000000000055
:101B90000000000000000000000000000000000045
:101BA0000000000000000000000000000000000035
:101BB0000000000000000000FFFFFFFFFFFFFFFF2D
:101BC000FFFFFFFFFFFFFFFFFFFFFFFFFFFFFFFF25
:101BD000FFFFFFFFFFFFFFFFFFFFFFFFFFFFFFFF15
:101BE000FFFFFFFFFFFFFFFF0000000000000000FD
:101BF00000FFFFFFFFFFFFFFFFFFFFFFFFFFFFFFF4
:101C000000000000000000000000000000000000D4
:101C100000000000000000000000000000000000C4
:101C200000000000000000000000000000000000B4
:101C300000000000000000000000000000000000A4
:101C40000000000000000000000000000000000094
:101C50000000000000000000000000000000000084
:101C60000000000000000000000000000000000074
:101C70000000000000000000000000000000000064
:101C80000000000000000000000000000000000054
:101C90000000000000000000000000000000000044
:101CA0000000000000000000000000000000000034
:101CB0000000000000000000000000000000000024
:101CC0000000000000000000000000000000000014
:101CD0000000000000000000000000000000000004
:101CE000FFFFFFFFFFFFFFFFFFFFFFFFFFFFFF1FE4
:101CF0001F1F1F1F1F1F1F1F1F1F1F1F1F1F1F1FF4
:101D00001F1F1F1F1F1F1F1F1F1F1F1F1F1F1F1FE3
:101D1000000000000000000000FFFFFFFFFFFFFFCA
:101D2000FFFFFFFFFFFFFFFF0000000000000000BB
:101D300000000000000000000000000000000000A3
:101D40000000000000000000000000000000000093
:101D50000000000000000000000000000000000083
:101D60000000000000000000000000000000000073
:101D70000000000000000000000000000000000063
:101D80000000000000000000000000000000000053
:101D90000000000000000000000000000000000043
:101DA0000000000000000000000000000000000033
:101DB0000000000000000000000000000000000023
:101DC0000000000000000000000000000000000013
:101DD0000000000000000000000000000000000003
:101DE00000000000000000000000000000000000F3
:101DF00000000000000000000000000000000000E3
:101E00000000000000000000FFFFFFFFFFFFFFFFDA
:101E1000FFFFFFFFFFFFFFC0C0C0C0C0C0C0C0C009
:101E2000C0C0C0C0C0C0C0C0C0C0C0C0C0C0C0C0B2
:101E3000C0C0C0C0C0C0C0C0C0C0C0C0C0C0C0C0A2
:101E4000C0FFFFFFFFFFFFFFFFFFFFFFFFFFFFFFE1
:101E50000000000000000000000000000000000082
:101E60000000000000000000000000000000000072
:101E70000000000000000000000000000000000062
:101E80000000000000000000000000000000000052
:101E90000000000000000000000000000000000042
:101EA0000000000000000000000000000000000032
:101EB0000000000000000000000000000000000022
:101EC0000000000000000000000000000000000012
:101ED0000000000000000000000000000000000002
:101EE00000000000000000000000000000000000F2
:101EF00000000000000000000000000000000000E2
:101F000000000000000000000000000000000000D1
:101F100000000000000000000000000000000000C1
:101F200000000000000000000000000000000000B1
:101F3000FFFFFFFFFFFFFFFFFFFFFFFFFFFFFFFFB1
:101F4000FFFFFFFFFFFFFFFFFFFFFFFFFFFFFFFFA1
:101F5000FFFFFFFFFFFFFFFFFFFFFFFFFFFFFFFF91
:101F6000FFFFFFFFFFFFFFFFFFFFFFFFFFFFFFFF81
:101F7000FFFFFFFFFFFFFFFF000000000000000069
:101F80000000000000000000000000000000000051
:101F90000000000000000000000000000000000041
:101FA0000000000000000000000000000000000031
:101FB0000000000000000000000000000000000021
:101FC0000000000000000000000000000000000011
:101FD0000000000000000000000000000000000001
:101FE00000000000000000000000000000000000F1
:101FF00000000000000000000000000000000000E1
:1020000000000000000000000000000000000000D0
:1020100000000000000000000000000000000000C0
:1020200000000000000000000000000000000000B0
:1020300000000000000000000000000000000000A0
:102040000000000000000000000000000000000090
:102050000000000000000000070707070707070748
:102060000707070707070707070707070707070700
:1020700007070707070707070707070707070707F0
:1020800007070707070707070707070707070707E0
:1020900007070707070707070707070707070707D0
:1020A0000000000000000000000000000000000030
:1020B0000000000000000000000000000000000020
:1020C0000000000000000000000000000000000010
:1020D0000000000000000000000000000000000000
:1020E00000000000000000000000000000000000F0
:1020F00000000000000000000000000000000000E0
:1021000000000000000000000000000000000000CF
:1021100000000000000000000000000000000000BF
:1021200000000000000000000000000000000000AF
:10213000000000000000000000000000000000009F
:10214000000000000000000000000000000000305F
:102150001E1E0E82C2F2FE3E3E0E000002FEFEFE7B
:10216000FE8280808082FEFEFE02000000E0F0FC25
:102170000C0C0202020CFCF0F0E0000002FEFE3E3D
:102180003EFCE0C08080022EDE02000080E0FC3CCD
:102190000E0E0202020C3C2C2C000000000000007D
:1021A00002FEFEFE02020000020EFEFEFE0E020015
:1021B000000202FE3E7EFCE0E0C00002FE0E0202D3
:1021C0000080F0FC3C3C0E0202020C0C3C000000C3
:1021D000021E1E7EFEE2808080621E02000002025D
:1021E000FEFEFE020000000002FE0E0000000000E5
:1021F0008070707EFEE08000000000000002FEFEA5
:102200003E7EF0E080800002FE0E00000000000034
:1022100000000000000000000000000000000000BE
:1022200000000000000000000000000000000000AE
:10223000000000000000000000000000000000009E
:10224000000000000000000000000000000000008E
:10225000000000000000000000000000000000007E
:1022600000008080808080808080808080000000EE
:10227000000000000000003038383E3F27212030A9
:10228000303C0000203F3F3F3F20000000203F3F08
:102290003F20000000070F1F3030202020301F1F7C
:1022A0001F070000203F3F30200001070F0F1E3E98
:1022B00002000000030F1F1C30302021333F1F3F5E
:1022C0003F01001C1C2C2C20203F3F0F0000000071
:1022D00020303F3F3F3020000020203F20200001E1
:1022E00001070F3E3F00000000030F1F3C3C202071
:1022F00021331F1F3F1B010000000020213F3F2111
:1023000021200000000000000F1F3F30202020206F
:10231000100F00000020382E23020202032F3F3E40
:102320003E30200000203F3F2020000307070F3EE3
:102330003F0000000000000000000000000000005E
:10234000000000000000000000000000000000008D
:10235000000000000000000000000000000000007D
:102360000000000000000000000000020202020263
:1023700006060606060E0F0F1F1F1F1F1F3F3F3FBB
:102380007F7F7F7F7FFFFFFFFFFFFFFFFFFFFFFFDD
:10239000FFFFFFFFFFFFFFFFFEFEFEFEFEFCFCFC5B
:1023A000F8F8F8F8F0F0F0E0E0E0E0C0C0C0C0C03D
:1023B000808080808080808080808080808080801D
:1023C000808080C0C0C0C0C0C0C0C0C0C0C0C0C0CD
:1023D000C0C0C0C0C0C0C0C0E0E0E0E0E06060607D
:1023E000606060606060606060606060E0F0F0F0BD
:1023F000F0F0F0F0F0F0F0F0F0F0F0F0F0F0F0F0DD
:10240000F0F0F0F8F8F8F8F0F0F0F0E0E0E0C0C03C
:10241000C0C0C0808080800000000000000000007C
:1024200000000000000000000000000000000000AC
:10243000000000000000000000000000000000009C
:10244000000000000000000000000000000000008C
:10245000000000000000000000000000000000007C
:10246000000000000000000000000000000000006C
:10247000000000000000000000000000000000005C
:10248000000000000000000000000000000000004C
:10249000000000000000000000000000000000003C
:1024A0000000000000000000000000000001010129
:1024B000010103030307070707070F0F0F0F0F0F94
:1024C0000F0F0F0F0F0F0F0F0F0F0F070707070744
:1024D0000707070707070707070707070707030394
:1024E00003030303030303030303030303030303BC
:1024F00003030101010101010101010101010101C8
:1025000001010101010000000000000000000000C6
:10251000000000000101010103030307070707078B
:102520000F0F0F0F1F1F1F3F3F3F3F3F7F7F7F7FDB
:102530007F7F7F7F7F7F7F7F7F7F7F7F7F7F7F7EAC
:102540007E7E7E7E7C7C7C38383838383030303047
:102550003030303030303030303838383838383843
:10256000181818181818181818181818181C1C1CDF
:102570001C1C1C1C1C1C1C1C1C1C1C1C1C1C1C1C9B
:102580003C3C3E3E3E3E3E3E7E7E7E7E7E7E7EFEEF
:10259000FEFEFCFCF8F8F0F0F0F0E0E0C0C0C0C0D7
:1025A000808000000000000000000000000000002B
:1025B000000000000000000000000000000000001B
:1025C00000000000000000000000000020E0C080CB
:1025D000E0E0600000C0C0C04040C0C0000000009B
:1025E00000E0E000000000C0C000000000E0E000EB
:1025F00000000000000000000000E0E0000000001B
:10260000000000000000000000E0E0E0A0A0A0A0AA
:10261000A0A0A0E0E00000000000C0C0404040409A
:102620004040404040404040C0C00000000000002A
:102630000000000000E0E0000000000000000000DA
:102640000000404040404040404040404040C0C00A
:1026500040000000000000E0E0E00000000000009A
:10266000E0E00000000000000000000000000000AA
:10267000E0E0E00040C0800000000000808080803A
:10268000808080E0E0E080808080808080808000AA
:10269000C0C0C040C0C0C0C0C040404040C0C0C0BA
:1026A000000000000000000000C0C00000E0E000EA
:1026B0000000000000000000000040404040414198
:1026C000414141414141C3C30303030303070606DC
:1026D00004040400080000000000000000000000E6
:1026E00000000000000000000000000000000000EA
:1026F000003031313131FFFF3131313130FFFFFFF7
:10270000043FFBC00040407C3CFFFF04043C38FF1A
:10271000FF043C3C38FFFF0000000000FEFE020208
:102720000202FFFF02020202FEFE00000000080893
:1027300008CBCBCB4A4A4E4E4A4A4ACBCB08080874
:102740000800FFFF080909F9F909F9F90909090859
:10275000FFFF0000000000FFFFFF313131FFFF31BC
:10276000313131FFFF000000003030303030303088
:1027700030FCFCFC3633313030303030020282FF26
:10278000FFFF723331F1F1F13F3FB1F1717101009F
:102790000002020282C27A3EFFFFFF3E7AC383023A
:1027A000020200000080C0C070FCFF474444444463
:1027B00044FCFC0000000000FFFFFF0FFBF0FFFFE8
:1027C000FF32F2F232BFFFFF400000407070380C61
:1027D0000783F070700003070C3838704040000029
:1027E000020202F2F232323232F2F2020202FFFF4F
:1027F00000000000000000000000000000000000D9
:1028000000000000000000000000000000000000C8
:102810000000000000000000001018180C07030161
:1028200003030E0C003F3F3F06060301002020304B
:102830001C0F03000000000F0F000000003F3F00CE
:10284000000000000303010101013F3F01010101FC
:102850000303000000000010180B030312323E1E99
:10286000020202030B18100000003F3F1417171359
:1028700010101317141417173F3F00000000000733
:1028800007070202021F3F2222222227273C3C3C4C
:102890000000000000000010303F1F1F000000007B
:1028A000000000000111313F3F1F202030101B1B92
:1028B0000F0E1B312020200004060303010000003E
:1028C0003F3F3F0000000103030604000101000038
:1028D000003F3F0202020212323F1F0000000000D0
:1028E0003F3F3F0303013F3F3F180803070D181800
:1028F000101000000000081C1E0B09080808090F32
:102900001E181800000000000000000F0F0404044F
:10291000040F0F1030303F1F0000000000000000C7
:1029200000000000000000000000000000000000A7
:102930000000000000000000000000000000000097
:102940000000000000000000000000000000000087
:102950000000000000000000000000000000000077
:102960000000000000000000000000000000000067
:10297000010203040607080900000000000000002F
:10298000002F000000000700070000147F147F14D0
:1029900000242A7F2A120062640813230036495556
:1029A000225000000503000000001C22410000002E
:1029B00041221C000014083E08140008083E0808C4
:1029C000000000A06000000808080808000060601F
:1029D0000000002010080402003E5149453E00005E
:1029E000427F4000004261514946002141454B3140
:1029F000001814127F10002745454539003C4A490C
:102A0000493000017109050300364949493600067D
:102A10004949291E000036360000000056360000E5
:102A20000008142241000014141414140000412260
:102A3000140800020151090600324959513E007C38
:102A40001211127C007F49494936003E4141412222
:102A5000007F4141221C007F49494941007F09090B
:102A60000901003E4149497A007F0808087F0000BB
:102A7000417F4100002040413F01007F0814224176
:102A8000007F40404040007F020C027F007F04082E
:102A9000107F003E4141413E007F09090906003E8A
:102AA0004151215E007F09192946004649494931B3
:102AB0000001017F0101003F4040403F001F2040D6
:102AC000201F003F4038403F006314081463000794
:102AD0000870080700615149454300007F414100EB
:102AE00000552A552A55000041417F00000402018B
:102AF0000204004040404040000001020400002069
:102B000054545478007F48444438003844444420A6
:102B100000384444487F00385454541800087E0953
:102B200001020018A4A4A47C007F0804047800001B
:102B3000447D4000004080847D00007F10284400D8
:102B40000000417F4000007C04180478007C0804E9
:102B5000047800384444443800FC24242418001825
:102B6000242418FC007C0804040800485454542011
:102B700000043F444020003C4040207C001C20409A
:102B8000201C003C4030403C004428102844001CDD
:102B9000A0A0A07C004464544C44141414141414D5
:102BA0000000000000000000000000000000FC0029
:102BB0000000000002000000000C020C02000000F7
:102BC0000000000090D0BCD0BC90000300030000C7
:102BD0001824FE448C000302070201001824D8B018
:102BE0004C80000300010201C038E438E00001021B
:102BF00002010202080600000000000000000000C0
:102C0000000000F80402000000010204000204F8C1
:102C100000000004020100009060F86090000000D5
:102C2000010000002020FC20200000000100000026
:102C30000000000000000806000000002020202006
:102C40002000000000000000000000000000000262
:102C5000000000000080601C02000403000000006F
:102C6000F8040404F8000102020201000008FC005C
:102C7000000000020302000018844424180003022C
:102C80000202020008042424D8000102020201000A
:102C900040B088FC80000000000302003C24242493
:102CA000C400010202020100F824242CC000010229
:102CB000020201000C04E41C0400000003000000F8
:102CC000D8242424D80001020202010038444444DC
:102CD000F8000003020201000000100000000000E4
:102CE00002000000000020000000000006000000BC
:102CF0000020508804020000000001029090909093
:102D00009000000000000000000204885020000233
:102D1000010000001804C424180000000200000094
:102D2000F804E494F80001020202020000E09CF0C2
:102D3000800002030000030204FC2424D8000203E4
:102D400002020100F80404040C0001020202010066
:102D500004FC0404F80002030202010004FC2474D1
:102D60000C0002030202030004FC24740C000203A2
:102D700002000000F0080444CC40000102020100FF
:102D800004FC2020FC040203000003020404FC04F1
:102D90000400020203020200000404FC040406040E
:102DA0000403000004FC24D00C040203020003020C
:102DB00004FC04000000020302020203FC3CC03CCD
:102DC000FC0003000300030004FC30C4FC04020305
:102DD00002000300F8040404F800010202020100EA
:102DE00004FC24241800020302000000F884840478
:102DF000F80001020207050004FC246498000203A5
:102E000002000302182424448C0003020202010081
:102E10000C04FC040C0000020302000004FC00008F
:102E2000FC04000102020100047C80E01C0400009C
:102E3000030000001CE03CE01C0000030003000055
:102E4000049C609C0400020300030200041CE01CBC
:102E500004000002030200000C84641C040002034E
:102E6000020203000000FE0202000000070404004A
:102E7000000E30C00000000000010200000202FE4F
:102E80000000000404070000000402040000000029
:102E90000000000000000000000008080808080802
:102EA0000000020000000000000000000040A0A0A0
:102EB000C00000010202030204FC2020C000000345
:102EC0000202010000C02020600000010202020096
:102ED00000C02024FC0000010202030200C0A0A0E8
:102EE000C0000001020202000020F82424040002B5
:102EF000030202000040A0A0602000070A0A0A04A2
:102F000004FC2020C0000203020003020020E400B1
:102F10000000000203020000000020E40000080896
:102F20000807000004FC80E02020020302000302E6
:102F30000404FC000000020203020200E020E02082
:102F4000C00003000300030020E02020C0000203B3
:102F50000200030200C02020C000000102020100A4
:102F600020E02020C000080F0A02010000C020203D
:102F7000E0000001020A0F0820E0402020000203C8
:102F8000020000000060A0A0200000020202030076
:102F90000020F820000000000102020020E00020D4
:102FA000E00000010202030220E020806020000017
:102FB000030100006080E080600000030003000067
:102FC00020608060200002030003020020E02080D7
:102FD00060200808070100000020A0602000000217
:102FE00003020200000020DE0200000000070400CF
:102FF000000000FF00000000000F00000002DE20C3
:1030000000000004070000000201020404020000A6
:1030100000000000000000000000000000000000B0
:1030200000000000000000F8000000000000003375
:103030003000000000100C06100C0600000000001C
:103040000000000040C07840C0784000043F040405
:103050003F040400007088FC08300000001820FFC6
:10306000211E0000F008F000E018000000211C0301
:103070001E211E0000F00888700000001E2123247D
:103080001927211010160E0000000000000000009B
:1030900000000000000000E018040200000000072B
:1030A0001820400000020418E00000000040201832
:1030B00007000000404080F0804040000202010F05
:1030C00001020200000000F0000000000101011FE9
:1030D00001010100000000000000000080B070004D
:1030E00000000000000000000000000000010101DD
:1030F000010101010000000000000000003030006C
:103100000000000000000000806018040060180645
:103110000100000000E010080810E000000F10207F
:1031200020100F00001010F8000000000020203FC9
:103130002020000000700808088870000030282453
:1031400022213000003008888848300000182020F4
:1031500020110E000000C02010F800000007042419
:10316000243F240000F8088888080800001921205E
:1031700020110E0000E0108888180000000F1120B8
:1031800020110E0000380808C83808000000003F71
:10319000000000000070880808887000001C2221D0
:1031A00021221C0000E010080810E000000031227D
:1031B00022110F00000000C0C0000000000000301D
:1031C000300000000000008000000000000080606F
:1031D00000000000000080402010080000010204F0
:1031E00008102000404040404040400004040404D7
:1031F0000404040000081020408000000020100893
:1032000004020100007048080808F00000000030C7
:1032100036010000C030C828E810E0000718272455
:1032200023140B000000C038E0000000203C230203
:103230000227382008F8888888700000203F202066
:1032400020110E00C0300808080838000718202098
:103250002010080008F808080810E000203F20208F
:1032600020100F0008F88888E8081000203F202070
:103270002320180008F88888E8081000203F200064
:1032800003000000C030080808380000071820209C
:10329000221E020008F808000008F808203F21015B
:1032A00001213F20000808F8080800000020203F06
:1032B0002020000000000808F8080800C080808076
:1032C0007F00000008F888C028180800203F20016F
:1032D0002638200008F8080000000000203F2020C9
:1032E0002020300008F8F800F8F80800203F003FE0
:1032F000003F200008F830C00008F808203F2000F8
:1033000007183F00E01008080810E0000F10202008
:1033100020100F0008F808080808F000203F2101DD
:1033200001010000E01008080810E0000F18242434
:1033300038504F0008F8888888887000203F2000A7
:10334000030C30200070880808083800003820215D
:1033500021221C00180808F8080818000000203F67
:103360002000000008F808000008F808001F2020CE
:1033700020201F000878880000C83808000007389F
:103380000E010000F80800F80008F800033C0700F0
:10339000073C0300081868808068180820302C0358
:1033A000032C30200838C800C83808000000203F2F
:1033B0002000000010080808C8380800203826211E
:1033C00020201800000000FE020202000000007F22
:1033D00040404000000C30C0000000000000000130
:1033E0000638C00000020202FE000000004040401B
:1033F0007F00000000000402020204000000000040
:1034000000000000000000000000000080808080BC
:1034100080808080000202040000000000000000A4
:10342000000000000000808080800000001924223D
:1034300022223F2008F8008080000000003F112079
:1034400020110E000000008080800000000E11207E
:1034500020201100000000808088F800000E11205C
:1034600020103F200000808080800000001F22226A
:1034700022221300008080F0888888180020203FD6
:10348000202000000000808080808000006B9494E9
:103490009493600008F8008080800000203F2100A5
:1034A00000203F2000809898000000000020203F6E
:1034B00020200000000000809898000000C080805C
:1034C000807F000008F8000080808000203F2402F8
:1034D0002D302000000808F8000000000020203FE8
:1034E000202000008080808080808000203F20009D
:1034F0003F20003F8080008080800000203F21002E
:1035000000203F200000808080800000001F2020DD
:1035100020201F00808000808000000080FFA1200C
:1035200020110E000000008080808000000E11201D
:1035300020A0FF80808080008080800020203F21AC
:10354000200001000000808080808000003324245F
:1035500024241900008080E0808000000000001F0B
:10356000202000008080000000808000001F2020BC
:1035700020103F20808080000080808000010E307D
:103580000806010080800080008080800F300C03DE
:103590000C300F0000808000808080000020312EE1
:1035A0000E312000808080000080808080818E70BD
:1035B0001806010000808080808080000021302C6F
:1035C0002221300000000000807C02020000000088
:1035D000003F404000000000FF000000000000002D
:1035E000FF0000000002027C800000000040403F1D
:1035F00000000000000601010202040400000000B7
:1036000000000000000000000000000000000000BA
:1036100000000000000000000000000000000000AA
:1036200000000000000000000000000000F0F0F0CA
:10363000000000000000000000017F010000000009
:1036400000000000001C1C1C000000000000806046
:10365000301C8C60301C0C000000000000000000DA
:10366000000000000000000000000000000000005A
:10367000000000E00000000000E000000086E69F7F
:1036800086868686E69F860000011F0101010101F2
:103690001F010100000080C06020F820E0C0000091
:1036A000000003070C18FF70E18100000000070F05
:1036B00010107F100F070000806020608000000065
:1036C000E02000000F3020309F70DC371030C00049
:1036D0000000100E03000718101807000000C0209B
:1036E00020E0C0000000000080E01F38E88703C42D
:1036F0003C040000070F1810100B070D10100800F5
:1037000000808C4C38000000000000000000000029
:1037100000000000000000000000000000000000A9
:103720000000000000000000000080E030080400FD
:103730000000000000FEFF0100000000000000008B
:103740000000030F1820400000040830E080000053
:10375000000000000000000001FFFE00000000006B
:10376000004020180F0300000000000000000000CF
:103770000000C00000000000004266663C18FF1810
:103780003C666642000000000000030000000000EC
:103790000000000000008000000000000010101079
:1037A0001010FF10101010100000000000000300A7
:1037B0000000000000000000000000000000000009
:1037C00000000000000000000000000000808C4CA1
:1037D00038000000000000000000000000000000B1
:1037E0000000000000101010101010101010100039
:1037F00000000000000000000000000000000000C9
:1038000000000000000000000000000000000000B8
:103810000000000000001C1C1C0000000000000054
:103820000000000000000000E0380C000000000074
:1038300080701C03000000000060380E01000000D2
:1038400000000000000080C060202060C0800000F8
:1038500000FEFF010000000001FFFE000001070E56
:10386000181010180E0701000000808080C0E000D2
:10387000000000000000000000FFFF00000000004A
:1038800000001010101F1F101010000000804020BA
:1038900020202060C080000000030300804020380A
:1038A0001F070000001C1A1918181818181F00000C
:1038B0000080C020202060C08000000000030300C2
:1038C0001010182FE780000000070F1010101018BC
:1038D0000F070000000000000000C0E0F000000042
:1038E00000C0B088868180FFFF808000000000005B
:1038F0000010101F1F1010000000E060606060608A
:103900006060000000003F1008080818F0E00000A8
:1039100000070B101010101C0F030000000080C0E7
:1039200040202020E0C0000000FCFF211008080813
:1039300018F0E0000001070C18101010080F030029
:103940000000C0E06060606060E0600000000300B4
:103950000000E0180700000000000000001F1F002A
:10396000000000000080C0602020202060C0800097
:103970000087EF2C1818303068CF830000070F083D
:1039800010101010180F07000000C0C020202020C9
:10399000C0800000001F3F604040402010FFFE003C
:1039A00000000C1C101010080F03000000000000A5
:1039B000000000000000000000000000000E0E0EDD
:1039C0000000000000000000001C1C1C00000000A3
:1039D00000000000000000000000000000000000E7
:1039E000000C0C000000000000000000005838002F
:1039F00000000000000000000000008040201000D7
:103A000000001028448201000000000000000000B7
:103A10000000010204081000000000000000000087
:103A2000000000000084848484848484848484006E
:103A30000000000000000000000000000000102056
:103A40004080000000000000000000000000018233
:103A500044281000000010080402010000000000CB
:103A600000C020201010101030E0C0000003030040
:103A700000F010080C070300000000001C1C1C00D4
:103A800000000000000000C0406020202040C00076
:103A900000FCFF01F00E03C1FE03807F0001070E52
:103AA00008111110110904020000000080E0E0007C
:103AB000000000000000807C4340477FF880000049
:103AC00010181F1000000000131F1C1020E0E02041
:103AD00020202060C080000000FFFF101010101890
:103AE0002FE78000101F1F1010101010180F070074
:103AF000000080C0402020202060E00000FCFF018A
:103B000000000000000001000001070E1810101056
:103B10000804030020E0E02020202040C0800000B6
:103B200000FFFF000000000001FFFE00101F1F103B
:103B3000101018080E07010020E0E02020202020AF
:103B40002060800000FFFF101010107C00000000BB
:103B5000101F1F10101010101018060020E0E02099
:103B6000202020206060800000FFFF101010107CDB
:103B700000000100101F1F100000000000000000E6
:103B8000000080C06020202040E0000000FCFF0119
:103B900000004040C0C140400001070E1810101046
:103BA0000F0F000020E0E0200000000020E0E020F7
:103BB00000FFFF101010101010FFFF00101F1F104B
:103BC00000000000101F1F100000202020E0E02057
:103BD000202000000000000000FFFF0000000000A7
:103BE00000001010101F1F10101000000000000037
:103BF000202020E0E020202000000000000000FF46
:103C0000FF0000000060E0808080C07F3F00000077
:103C100020E0E020000020A06020200000FFFF3016
:103C2000187CE3C000000000101F1F1000000113EB
:103C30001F1C181020E0E020000000000000000021
:103C400000FFFF000000000000000000101F1F1018
:103C5000101010101018060020E0E0E00000000036
:103C6000E0E0E02000FF013FFEC0E01E01FFFF009A
:103C7000101F1000031F0300101F1F1020E0E0C0E2
:103C8000000000000020E02000FF0003071C78E097
:103C90008000FF00101F100000000000030F1F0035
:103CA000000080C060202060C080000000FEFF0196
:103CB0000000000000FFFE000001070E18101018A1
:103CC0000C07010020E0E0202020202060C08000C0
:103CD00000FFFF2020202020301F0F00101F1F108A
:103CE0000000000000000000000080C06020206094
:103CF000C080000000FEFF010000000000FFFE0089
:103D00000001070E1111133C7C67210020E0E02028
:103D10002020202060C0800000FFFF101030F0D075
:103D2000080F0700101F1F10000000030F1C1010C9
:103D30000080C060202020204040E00000070F0CE1
:103D40001818303060E08100001F0C0810101010AF
:103D5000180F07008060202020E0E02020206080F5
:103D60000100000000FFFF00000000010000000053
:103D7000101F1F100000000020E0E02000000000E5
:103D80000020E02000FFFF00000000000000FF0016
:103D900000070F1810101010100807002060E0E056
:103DA0002000000020E060200000077FF8800080F5
:103DB0007C03000000000000071F1C07000000003B
:103DC00020E0E02000E0E0200020E0200007FFF8F5
:103DD000E01FFFFCE01F00000000031F0300011FA5
:103DE00003000000002060E0A0000020E060200050
:103DF000000000038F7CF8C6010000000010181EB0
:103E0000130001171F1810002060E0E020000000E0
:103E100020E06020000001073EF8E01807000000E5
:103E200000000010101F1F10100000000080602014
:103E3000202020A0E0E0200000000000C0F03E0FA5
:103E40000300000000101C1F1710101010180600AF
:103E50000000000000FC0404040404000000000052
:103E600000FF00000000000000000000007F404054
:103E700040404000000010E0000000000000000092
:103E800000000000031C6080000000000000000033
:103E9000000000030C70800000000404040404FC13
:103EA0000000000000000000000000FF0000000013
:103EB000000040404040407F000000000000001033
:103EC000080C040C081000000000000000000000B6
:103ED00000000000000000000000000000000000E2
:103EE00000000000000000000000000000000000D2
:103EF00000000000000000008080808080808080C2
:103F00008080808000000004040808000000000099
:103F100000000000000000000000000000000000A1
:103F20000000000000000000000000000000000091
:103F300000000000000098D844642424FCF800002D
:103F4000000F1F18101010081F1F10180020E0F09D
:103F500000000000000000000000FFFF180804043B
:103F60000CF8F00000001F0F18101010180F0300BD
:103F700000000000000000000000000000E0F81851
:103F80000404043C3800000000030F0C1010101053
:103F9000080600000000000000000020E0F0000023
:103FA00000E0F81C04040408FFFF000000030F18E1
:103FB000101010081F0F0800000000000000000093
:103FC000000000000000E0F8484444444C787000D1
:103FD0000000030F0C18101010080400000000006F
:103FE00080C0602020E0C00000040404FFFF04043F
:103FF00004040000000010101F1F1010100000002B
:10400000000000000000000000000000000070F848
:104010008C04048CF874040C007076CF8D8D8D891F
:10402000C87870000020E0F00000000000000000F0
:104030000000FFFF08040404FCF8000000101F1F2C
:10404000100000101F1F1000000000000060600042
:10405000000000000000040404FCFC00000000005C
:1040600000001010101F1F101010000000000000B2
:10407000000000606000000000000000040404FC78
:10408000FC0000000000C0C08080C07F3F00000036
:104090000020E0F000000000000000000000FFFF32
:1040A00080C0F41C0404000000101F1F1100031F37
:1040B0001C1010000000202020E0F0000000000094
:1040C0000000000000FFFF000000000000001010D2
:1040D000101F1F1010100000000000000000000062
:1040E0000000000004FCFC0804FCFC0804FCFC00CC
:1040F000101F1F10001F1F10001F1F1000000000C6
:1041000000000000000000000004FCFC080804049B
:10411000FCF8000000101F1F100000101F1F1000EF
:1041200000000000000000000000000000E0F018A7
:104130000C04040C18F0E00000030F0C1010101019
:104140000C0F030000000000000000000000000051
:104150000004FCFC080404040CF8F0000080FFFFDD
:10416000889010101C0F03000000000000000000E9
:104170000000000000E0F81C04040408F8FC000043
:1041800000030F1810109088FFFF8000000000004F
:104190000000000000000000040404FCFC100804FF
:1041A000040C0C001010101F1F1010100000000055
:1041B0000000000000000000000000000000307857
:1041C000CCC48484840C1C0000001E181010101134
:1041D000190F06000000000000C0000000000000F1
:1041E00000040404FFFF04040400000000000000B9
:1041F0000F1F1010100C0000000000000000000055
:10420000000000000004FCFE00000004FCFE0000B2
:1042100000000F1F181010081F0F080000000000FA
:10422000000000000000000000040C3CFCC4000082
:10423000C43C0C0400000000010F1E0E0100000031
:10424000000000000000000000000000043CFCC46E
:1042500000E47CFC84807C040000071F070000074A
:104260001F07000000000000000000000000000028
:104270000004041C7CE4C0341C0404000010101C66
:104280001601131F1C1810000000000000000000A1
:104290000000000000040C3CFCC400C43C0404000A
:1042A0000000C080C1370E010000000000000000C7
:1042B000000000000000000000001C0404C4F47CA6
:1042C0001C0400000000101C1F17111010180E0015
:1042D00000000000000000F80C04000000000000D6
:1042E000001028EF00000000000000000000003F68
:1042F00060400000000000000000FF00000000001F
:10430000000000000000FF000000000000000000AE
:104310000000FF00000000000000040CF800000096
:104320000000000000000000EF2810000000000066
:10433000000040603F00000000000000001806027E
:1043400002040810202030080000000000000000D7
:10435000000000000000000000000000000000005D
:104360000000F010101010FF10101010F0000000EE
:1043700000000F04040404FF040404040F00000000
:104380004040405F555555755555555F404040007C
:104390000040200F094989790909090F20400000D0
:1043A00000FE02424ACA4A4ACA4A4A4202FE000083
:1043B00000FF40504C4340404F50505C40FF0000D5
:1043C0000000F888888888FF88888888F8000000BE
:1043D00000001F080808087F888888889F80F000F0
:1043E00080828282828282E2A2928A868280800099
:1043F000000000000040807F00000000000000007E
:10440000101010FF109008888888FF88888808009E
:104410000444827F01808040432C10284681800024
:104420000010101010D030FF30D0121C10100000FF
:1044300010080402010000FF00000102040810003F
:1044400004040484E43C2724242424E40404040015
:1044500004020100FF0909090949897F00000000E1
:1044600000FE225A8600FE9292929292FE00000076
:1044700000FF04080700FF4020030C142241400005
:1044800000804020180680000718204080000000AF
:10449000010020702826212020243860000101001E
:1044A000001012929292929292121202FE0000005A
:1044B0000000003F101010103F0040807F000000FF
:1044C000000000C080808080808080FC84808080AC
:1044D000808080C0C0000000000000FF7F4040409E
:1044E000404040FF40404040404040FF7F000000CF
:1044F00000000000000000000000007F70000000CD
:1045000000000000000000000000000000000000AB
:1045100000000000000000FCF800000000000000A7
:10452000000000000000000000000000FFFE02028A
:1045300002020202020202FFFF0202020202020261
:104540000202FF0300000000000000001F1F04041F
:1045500004040404040404FFFF0404040404040425
:1045600004041F0000000000000000000000000024
:10457000000000000000007F3F000000000000007D
:10458000000000000000000000000000000000002B
:10459000000000000000000000000000000000001B
:1045A0000000000000F8F8F0F070200000000000AB
:1045B00000000000000000000000000000000000FB
:1045C00000000000000000000000000000000000EB
:1045D000800000000000000000000000000000005B
:1045E0000000000000FFFFFFFF00000000000000CF
:1045F00000000000000000000000000080800000BB
:1046000000000000000000000000000000000000AA
:1046100000FFFFFE06060606060606060606060656
:104620000606060606FFFFFFFF0606060606060646
:104630000606060606060606060606FFFFFFFF0735
:104640000200000000000000000000000000000068
:1046500000FFFFFF0000000000000000000000005D
:104660000000000000FFFFFFFF000000000000004E
:104670000000000000000000000000FFFFFFFF003E
:10468000000000000000000000000000000000002A
:1046900000FFFFFF181818181818181818181818FD
:1046A0001818181818FFFFFFFF18181818181818EE
:1046B0001818181818181818181818FFFFFFFF00F6
:1046C00000000000000000000000000000000000EA
:1046D00002010100000000000000000000000000D6
:1046E0000000000000FFFFFFFF00000000000000CE
:1046F00000000000000000000000000101000000B8
:1047000000000000000000000000000000000000A9
:104710000000000000000000000000000000000099
:104720000000000000FFFFFFFF000000000000008D
:104730000000000000000000000000000000000079
:104740000000000000000000000000000000000069
:104750000000000000000000000000000000000059
:1047600000000000001F1F0F0F00000000000000ED
:104770000000000000000000000000000000000039
:1047800000000000000000000203040506070809FD
:104790000A0B0C0D0E0F101001020304050607088A
:1047A000090A0B0C0D0E0F10C8470008000000206E
:1047B0001000000012140008D84700081000002064
:1047C000E01600002214000800127A000100000028
:0847D0001000000000000000D1
:040000050800018965
:00000001FF
