:020000040800F2
:10000000E8160020D50000081B0A0008190A00089D
:1000100000000000000000000000000000000000E0
:10002000000000000000000000000000291100088E
:100030000000000000000000B51000082B110008AF
:10004000E7000008E7000008E7000008E7000008F4
:10005000E7000008E7000008E7000008E7000008E4
:10006000E7000008E7000008E7000008E7000008D4
:10007000E7000008E700000800000000E7000008B3
:1000800000000000E7000008000000000000000081
:10009000E700000800000000E7000008E700000893
:1000A000E7000008E7000008E7000008E700000894
:1000B000E7000008E7000008E7000008E700000884
:1000C0000348854600F02AF800480047211200083E
:1000D000E81600200448804704480047FEE7FEE792
:1000E000FEE7FEE7FEE7FEE7AD110008C1000008ED
:1000F00030B50B46014600202022012409E00D46C0
:10010000D5409D4205D31D469540491B2546954047
:1001100040191546521E002DF1DC30BD064C01255C
:10012000064E05E0E36807CC2B430C3C984710349F
:10013000B442F7D3FFF7C8FF80450008A045000888
:1001400010B5222000F053FFF72000F027FF2020F9
:1001500000F04DFF00F001F810BD10B50524240794
:100160002021204600F0CAF80028F9D110BD31B591
:1001700000F0D0F8044600F0CDF80099001B88424A
:10018000F9D338BDF8B500230124A2E027469F40EB
:100190003A4070D04D68022D01D0122D14D1DD08E7
:1001A000AD002D1800952D6A5E07AC46F50E0F26A2
:1001B000AE46AE406546B543AC460E697546AE40A8
:1001C00065462E43009D2E624D68012D05D0022DFF
:1001D00003D0112D01D0122D16D185680326AC460F
:1001E0005D00AE46AE406546B543AC46CE6875464A
:1001F000AE4065462E43866046680D79BE43ED06E7
:10020000ED0F9D403543456006685F000325BD4006
:10021000AE46AE430D79B446AE07B60FBE40654656
:100220002E430660C6687546AE438D68BD403543B3
:10023000C5604D68ED004BD5294D6E6B26436E634E
:100240009E08284DB6007519AC46AD689E07360F5E
:100250000F27B740BD4305273F07B84201D100270C
:1002600015E0214FB84201D1012710E01F4FB842DD
:1002700002D102270BE02BE01D4FB84201D103272A
:1002800005E01C4FB84201D1052700E00627B74022
:100290002F436546AF60184D2E684F689643FF03A5
:1002A00000D516432E606E684F689643BF0300D595
:1002B00016436E60AE684F689643FF0200D5164342
:1002C000AE60EE684F689643BF0200D51643EE60FD
:1002D0005B1C0A681546DD4000D057E7F8BD0000FA
:1002E00000100240000001400004005000080050CF
:1002F000000C0050001C0050000401400069084040
:1003000000D001207047002A01D0816170478162CE
:10031000704700000148006870470000000000209E
:1003200002480168491C016070470000000000207D
:1003300010B506480168402211430160002000F01A
:1003400007F800F019F8002010BD0000002002405E
:1003500010B5044607487D21C9000068FFF7C8FEB4
:1003600000F03EFB00222146501E00F006F800205F
:1003700010BD000004000020704710B500F04EFBD7
:1003800010BD0000F8B5054653480E460068C0078A
:10039000C00FB0420AD250480168490849003143B1
:1003A00001600068C007C00FB0426FD128784B4C85
:1003B000800705D5E068F0218843A9680843E0601C
:1003C0002878C00752D06868022817D0032818D0B0
:1003D0002168012818D08905002957DAE1688908C1
:1003E00089000143E160FFF795FF6968074602292C
:1003F00012D003291CD0012926D033E021688903BB
:10040000EAE721688901E7E74907E5E7FFF782FFA7
:10041000C11B3348814223D8E0680007800F0228BF
:10042000F4D123E0FFF776FFC11B2D48814217D896
:10043000E0680007800F0328F4D117E0FFF76AFF98
:10044000C11B274881420BD8E0680007800F0128B4
:10045000F4D10BE0FFF75EFFC11B2148814201D9B7
:100460000320F8BDE0680007800FF3D11A48016847
:10047000C907C90FB1420BD9016849084900314386
:1004800001600068C007C00FB04201D00120F8BD74
:100490002878400706D5E068072109028843E96803
:1004A0000843E0602878000707D5E0680721C90203
:1004B00088432969C9000843E06000F01DF8E1683D
:1004C000084A0906090F515CC84007490860002026
:1004D000FFF73EFF0020F8BD002002400010024060
:1004E00088130000644500080400002001480068EB
:1004F000704700000400002010B5184AD1680C2095
:10050000084004280BD0082810D00C2810D05068C0
:100510000004410F0120C003491C884010BD106831
:10052000C00601D50E4810BD0E4810BD0E4810BDC6
:1005300088020E4B000F185C0902D368890F491C12
:10054000DB0301D5084A05E01268D20601D5044A4A
:1005500000E0044A5043FFF7CBFD10BD00100240FD
:1005600000093D000024F40000127A0074450008E0
:10057000F8B504460078FE4DC0074AD0E868000789
:10058000800F022807D0E8680007800F032809D1F0
:10059000E868C00306D5286880033AD5606800285B
:1005A00073D036E0012062680004824203D12968DA
:1005B0000143296011E0052301211B0489049A42AB
:1005C0002A6802D10A432A60F1E782432A602A6836
:1005D00002400092286888432860606800280CD098
:1005E000FFF798FE064604E0FFF794FE801B6428A0
:1005F0007ED828688003F7D50BE0FFF78BFE064610
:1006000004E0FFF787FE801B6428F1D82868800388
:10061000F7D42078800741D5E8681F270007800FAE
:100620003F02012807D0E8680007800F032809D19E
:10063000E868C00306D42868400717D5E068012899
:1006400023D113E0E068002817D0296809229143DC
:1006500001432960FFF75EFE064604E0FFF75AFEFD
:10066000801B0228C4D828684007F7D5686821692C
:10067000B84309020843686010E028684008400059
:100680002860FFF747FE064605E095E0FFF742FECB
:10069000801B0228ACD828684007F7D42078C00611
:1006A00072D5E868B34E0007800F0AD0E0690028D1
:1006B0002868B1495AD008432860FFF72BFE074647
:1006C00044E02868800502D5E069002874D0606A9B
:1006D00069683140884212D900F0EEFC0028AFD1A1
:1006E0006868616AB043084368606868000200E0B7
:1006F000DCE0218C000A0906084368600FE06968A5
:10070000B143014369606868218C0002000A090650
:1007100008436860606A00F0CFFC002890D1606AEE
:10072000410B0120C003491C8840E96809060A0FF3
:100730009249895CC840924908600020FFF708FE92
:1007400022E0FFF7E7FDC01B02288BD82868800550
:10075000F7D56868616AB043084368606868218CAF
:100760000002000A0906084368600DE0884328601B
:10077000FFF7D0FD064604E0FFF7CCFD801B022802
:1007800088D828688005F7D420787E4E000723D5C6
:1007900060690028306910D0012108433061FFF7FB
:1007A000B9FD074604E0FFF7B5FDC01B02287DD860
:1007B00030698007F7D50FE001E140084000306163
:1007C000FFF7A8FD074604E0FFF7A4FDC01B0228C1
:1007D0006CD830698007F7D42078400760D5A86BC3
:1007E0000027C00005D4A86B012109070843A863AE
:1007F000012765480168C90511D4016882151143B4
:100800000160FFF787FD009005E0FFF783FD009989
:10081000401A64284AD85C480068C005F5D5564897
:10082000A268824203D131690143316111E00121A3
:100830008902002A07D005231B029A4203D132699C
:100840000A433261EFE7326982433261306988439B
:100850003061A06800280ED0FFF75CFD009006E034
:10086000FFF758FD0099411A484881421ED8306967
:100870008005F5D50DE0FFF74DFD009006E0FFF790
:1008800049FD0099411A414881420FD830698005DD
:10089000F5D4002F04D0A96B012000078143A96380
:1008A0002078800630D53A48421400E080E0A16903
:1008B000002916D0AB6801210B43AB606B6B0B4377
:1008C0006B63016A11430162FFF724FD064604E0F1
:1008D000FFF720FD801B02286AD8A8688007F7D59B
:1008E00012E0A96849084900A960016A91430162C0
:1008F000FFF710FD064604E0FFF70CFD801B022801
:1009000056D8A8688007F7D4A06A002855D0E968AF
:100910000907890F032952D00126360602282868C4
:1009200005D0B0432860FFF7F5FC044642E0B04331
:100930002860FFF7EFFC074604E0FFF7EBFCC01B65
:10094000022835D828688001F7D4216BE06AEA686C
:100950000843616BFD231B049A4311430843E8607D
:10096000286830432860FFF7D5FC044617E00000F4
:100970000010024000E00000000100006445000893
:100980000400002040100240007000408813000066
:1009900000000140FFF7BEFC001B022808D82868B1
:1009A0008001F7D509E0FFF7B5FC001B022801D94B
:1009B0000320F8BD28688001F5D40020F8BD01208F
:1009C000F8BD0000042204490428086902D09043BD
:1009D000086170471043FBE700E000E0704700004B
:1009E000094910B5401E884201D9012010BD074CAD
:1009F00060610321081F00F011F80020A0610720AA
:100A00002061002010BD0000FFFFFF0000E000E0BB
:100A100010B5FFF7E3FF10BDFEE770478307FF2225
:100A2000DB0E9A408907090E994000280BDA00076F
:100A3000000F0838830808489B001818C3699343BF
:100A40000B43C3617047830804489B001B18186858
:100A5000904308431860704700ED00E000E400E0B8
:100A600030B500220849C3B20AE0002004E0544334
:100A700024180D68401C2B55CC698442F7D8521CB1
:100A8000086A9042F1D830BDC4120020F1B582B09E
:100A90001020FF27009000252937242000F0A7FA16
:100AA000002600240298405D00F078FA641C6D1C5A
:100AB000BC42F7D30098761C8642F2D3FFF740FB86
:100AC000FEBDFFB584B00190069A1F460091151A2D
:100AD00000D5851A7C1A002C00DDCC1B13460022A1
:100AE000D243984201D2012000E010460390B9425F
:100AF00000D201222E1902920D9A0099019800F05D
:100B000018F87000A04207DB0699019888420ED0C1
:100B100003993619401801907000A842ECDC009847
:100B2000B84204D00299761940180090E4E708B062
:100B3000F0BD00B5401E491E00F088FA00BDFFB5AB
:100B400081B00B980A9D1E4617460C46002808D116
:100B50000BE023463A46194600950198FFF7B1FF8E
:100B6000641CB442F5D305B0F0BD0B460095019866
:100B7000FFF7A7FF019A3346009521461046FFF77D
:100B8000A0FF3A462346314610460095FFF799FFED
:100B90003346009519463846019AFFF792FFE2E77F
:100BA00070B5194886B0C26A80210A43C262C26A1F
:100BB0000A400592C16A01242143C162C16A2140F1
:100BC0000591C16A02252943C162C06A05262840F1
:100BD00005901F2000900320360703900194029493
:100BE00069463046FFF7CEFA01221F213046FFF753
:100BF0008AFB20200090002001AA31C269463046BD
:100C0000FFF7C0FA06B070BD0010024010B5FFF744
:100C1000C7FF05242407002204212046FFF773FBA9
:100C20001420FFF7A4FA012204212046FFF76BFBF2
:100C30001420FFF79CFAFFF790FA122000F0D7F982
:100C4000FFF78BFA012000F0D2F9272000F0A6F977
:100C5000012000F0A3F9012000F0A0F9112000F01C
:100C6000C6F9012000F09AF9442000F0C0F90020F4
:100C700000F094F90F2000F091F9452000F0B7F949
:100C8000272000F08BF9012000F088F9002000F007
:100C900085F9002000F082F93C2000F0A8F9052039
:100CA00000F07CF9212000F0A2F9002000F076F994
:100CB000802000F073F9182000F099F9802000F0EE
:100CC0006DF94E2000F093F9002000F067F94F20F5
:100CD00000F08DF9272000F061F9012000F05EF9A5
:100CE000FFF73BFA10BD0246012000E05043491EC9
:100CF000FCD27047FFB589B0401C099007904D1C8D
:100D000058081C4605950690082B0BD0E008610793
:100D100000D00121401806994843203A01900392DF
:100D2000002043E00620F8E7082C11D00C2C14D04A
:100D3000102C17D0182C3DD10398242148431F496B
:100D40004118009800270E5CF0070FD0129A11E0AE
:100D50000398062148431A49F2E703980C214843B7
:100D60001849EDE7039818490001E9E712980028AF
:100D700022D0002229460998FFF7DBFE76086D1C79
:100D80007F1C082FE0D30998401C0990082C0AD03A
:100D900001460798091A0698814204D107980990DC
:100DA0000598083005900098059D401C0199009019
:100DB0008842B9D30DB0F0BD0122DBE7E033000873
:100DC000542700087C290008F02D0008FFB587B0E3
:100DD0000A9AD308520700D001229A180A9B401C95
:100DE0005A434C1C079000250494019205903EE064
:100DF0000A9810280FD0182812D0202816D0402882
:100E000038D109981D4940024018465D0027F00777
:100E100011D0109A13E00998410119480818F4E715
:100E20000998482148431549C839EDE709981349FD
:100E3000C0018039E8E7109800281DD00022214623
:100E40000798FFF776FE7608641C7F1C082FDED318
:100E500007980599401C0790401A0A99884204D1C6
:100E600005980790049808300490049C6D1C019824
:100E70008542BDD30BB0F0BD0122E0E7644300081A
:100E80003C410008FFB581B00A9800251E4608289D
:100E900000D10225002447081BE0311B0A20491E0F
:100EA000FFF721FF01460398FFF722F90A21FFF718
:100EB0001FF90B98002900900FD07819019A604310
:100EC00080180A460A9B30320299FFF713FF641C10
:100ED000E4B2B442E1D305B0F0BD781901996043A2
:100EE000401830220A9BEFE7FFB5441C88B000226F
:100EF0004D1CD808049506940592590700D001218D
:100F000040180B9000202AE0002021E0059911985C
:100F1000475C481C00260590F80728D01298002846
:100F200023D0002229462046FFF703FE7F086D1CD0
:100F3000761C082EF0D30698641C211A0A98814268
:100F400003D10498069C083004900298049D401C2C
:100F5000014602900A988142D8D30398401C0B990D
:100F600003908842D0D30CB0F0BD0122DAE7129A88
:100F7000D8E7FFB581B01F46144605465E0808E075
:100F80000A9800903B4628460299FFF7B3FE751970
:100F9000641C2278002AF3D105B0F0BD70B5052697
:100FA00005463607002210213046FFF7ACF9002431
:100FB000002201213046FFF7A6F9280601D50122BB
:100FC00000E0002202213046FFF79DF90122114680
:100FD0003046FFF798F96806641C050EE4B2082C49
:100FE000E6D3012210213046FFF78DF970BD70B5B0
:100FF000052405462407002208212046FFF783F92F
:101000002846FFF7CBFF012208212046FFF77BF996
:1010100070BD000030B50C4C039D20600C3426C41C
:101020004D07C808183C002D00D0401CA361226267
:10103000E061002B04D0B42B02D0A260616030BD0F
:101040006260A16030BD0000C412002070B5184C71
:101050002346A669DB68002E19D025462D695A2E35
:1010600017D0B42E1AD0FF3E0F2E0FD103460846DC
:10107000E169DD0841436818256880212C5C002A5D
:1010800010D05A07520FD1402143295470BD5B1A2A
:1010900002E01B1A681A401E5B1EE9E7281A0B467D
:1010A000401EE5E75A07520FD1408C432C5470BDC7
:1010B000C41200207047000070B517490023CA68A9
:1010C0001206120F18D18A6B154CD500134A02D59F
:1010D0001268224009E08E6B01252D072E438E6396
:1010E00012688E6B2240AE438E63A24204D103216C
:1010F0008903884200D101230A4801684908490050
:10110000194301600068C007C00F984201D0012058
:1011100070BD002070BD0000001002400070004053
:101120000018000000200240704710B5FFF7F8F8E3
:10113000FFF76EFC10BD000010B51B4894B00168AD
:101140000322D2029143C214891801600220009048
:1011500001210A90039140040C9000011021002409
:101160000D900B9404916846FFF702FA0F200E9041
:1011700003200F9010941194012112940EA8FFF7F0
:1011800001F9FFF7B3F97D21C900FEF7B1FFFFF7C1
:1011900027FC0420FFF716FC00221146501EFFF723
:1011A000ECF814B010BD0000007000401048016859
:1011B000821511430160C1680E4A1140C160016887
:1011C0000D4A114001608168490849008160016849
:1011D0000122920491430160C168FD2212049143EF
:1011E000C160002101610549C003886070470000AB
:1011F000001002400C40FF88F6FFF6FE00ED00E014
:1012000002E008C8121F08C1002AFAD170477047CF
:10121000002001E001C1121F002AFBD1704700002D
:101220001CB52025FFF784F8FFF786FFFFF7EEFCDB
:10123000FF20FF272937009000233A46802172487B
:10124000FFF7E8FEFF20FFF70BFC7D260024F600E9
:10125000FFF7DCFC6D480021009080233A460194A2
:101260000846FFF741FE6848FFF710FC3046FEF7DE
:101270007EFF3046FEF77BFF3046FEF778FFFF200B
:10128000FFF7EEFBFFF7C2FC0022102311463D20C2
:101290000094FFF79BFD1023012200214D200094B4
:1012A000FFF794FD1023022200215D200094FFF738
:1012B0008DFD1023032200216D200094FFF786FD91
:1012C0001023042200217D200094FFF77FFD1023CE
:1012D000052200218D200094FFF778FD10230622BF
:1012E00000219D200094FFF771FD102307220021AB
:1012F000AD200094FFF76AFD102308220021BD20D5
:101300000094FFF763FD102309220021CD200094F3
:10131000FFF75CFD10230A220021DD200094FFF777
:1013200055FD10233AA214216C200094FFF721FEF2
:1013300010233AA2282150200094FFF71AFE102310
:1013400038A228219D200094FFF713FE10232A467F
:10135000282183200094FFF7CDFC10200090032368
:101360002A4628210194C620FFF78CFD6D1CEDB2A2
:101370007E2D00D9202510232CA238212120009475
:10138000FFF7F7FD102331A2492131200094FFF728
:10139000F0FD59233A46194601200094FFF791FBCE
:1013A000102331A25A2135200094FFF7E2FD1023CB
:1013B00034A26A214B200094FFF7DBFD1248FFF7AF
:1013C00065FB3046FEF7D3FE3046FEF7D0FE3046D2
:1013D000FEF7CDFEFFF71AFC0121009480233A4668
:1013E00008460194FFF7ABFB0748FFF74FFB304679
:1013F000FEF7BDFE3046FEF7BAFE3046FEF7B7FEFA
:10140000FF20FFF72DFB23E70800002098140008B9
:10141000323031342F30352F3031000041534349C1
:10142000493A0000434F44453A00000057656C6359
:101430006F6D6520746F20322E39302D696E6368B0
:1014400020452D7061706572000000007769746836
:1014500020323936207820313238207265736F6C33
:101460007574696F6E0000005A686F6E676A696E06
:10147000677975616E20456C656374726F6E696320
:1014800000000000546563686E6F6C6F67792043DD
:101490006F2E2C4C74642E00000000000000000031
:1014A000000000000000000000000000000000003C
:1014B000000000000000000000000000000000002C
:1014C000000000000000000000000000000000001C
:1014D000000000000000000000000000000000000C
:1014E00000000000000000000000000000000000FC
:1014F00000000000000000000000000000000000EC
:1015000000000000F0F0F0F0F0F0F0F0F0F0F0F09B
:10151000F0F0F0F0F0F0F0F0F0F0F0F0F0F0F0F0CB
:10152000F0F0F0F0F0F0F0F0F0F0F0F0F0F0F0F0BB
:10153000F0F0F0F0000000000000000000F0F0F01B
:10154000F0F0F0F0F0F0F0F0F0F0F0F0000000005B
:10155000000000000000000000000000000000008B
:10156000000000000000000000000000000000007B
:10157000000000000000000000000000000000006B
:10158000000000000000000000000000000000005B
:10159000000000000000000000000000000000004B
:1015A000000000000000000000000000000000003B
:1015B000000000000000000000000000000000002B
:1015C0000000000000000060E0E0E0E060606060BB
:1015D00060E0E0E08000000000000000000000008B
:1015E0000000000000000060606060E0E0E060601B
:1015F000606000000060E0E0E0E08000606060E0CB
:10160000E06060E0E0E0E06000E0E0E0E0E060009A
:1016100000000000000000000000000000000000CA
:10162000000000000000000000000000FFFFFFFFBE
:10163000FFFFFFFFFFFFFFFFFFFFFFFFFFFFFFFFBA
:10164000FFFFFFFFFFFFFFFFFFFFFFFFFFFFFFFFAA
:10165000FFFFFFFFFFFFFFFFFFFFFFFF0000000096
:101660000000000000FFFFFFFFFFFFFFFFFFFFFF85
:10167000FFFFFFFF0000000000000000C0C0C0C06E
:10168000C0C0C0C0C0C0C0C0C0000000000000009A
:1016900000000000000000000000C0C0C0C0C0C0CA
:1016A000C0C0C0C0C0808000000000000000C0C0FA
:1016B000C0C00000000000C0C0C0C0C0C0C0C0C0EA
:1016C000C0C08080000000C0C0C0C0C0C0C0C0C0DA
:1016D000C0C0C0C000C0C0C0C0C0C0C0C0C0C0C0CA
:1016E000C0800000000000000000000000000000BA
:1016F000FFFFFFFF303030FCFCFC00030300000064
:101700003030303030303030303030303000000069
:10171000000000FFFFFF0000000000000000FFFFCE
:10172000FF0F3FFEF8F8C0FFFF0000FFFFFFFF7C48
:101730007EFFFFE3810000000000000000000000C9
:101740000000000000000000000000000000000099
:1017500000000000FFFFFFFFFFFFFFFFFFFFFFFF95
:10176000FFFFFF0303030303030303030303030355
:101770000303030303FFFFFFFFFFFFFFFFFFFFFF65
:10178000FFFFFFFF00000000000000000003030354
:101790000303030303030303030303030000000025
:1017A0000000000000FFFFFFFF60606060F8F901CB
:1017B000070700006060606060606060606060609B
:1017C000600000FFFFFFFFC0C0C0E0E1E17F7F3F9E
:1017D00000000000F0FF9F87FFFFFEE00000000018
:1017E00000FFFFFFC0C0C0C0E0E17F7F3F3F0000BF
:1017F000FFFFFFFF606060F8F9F901070700FFFFD6
:10180000FFFF6060E0E0E0F13F3F1F0000000000EC
:1018100000000000000000303F3F3F3F30303031DB
:101820003131383E0E0000000000000000000000D2
:1018300000000000000000303030303F3F3F3030CB
:101840003030000030303F3F3F30300007071F3F4F
:101850003F00303F3F3F3F30000101373F3E3830CF
:101860003000000000000000000000000000000048
:1018700000000000000000000000000083C3C3C39C
:10188000C3C3C3C3C3C3C3C3C3C3C3C0C0C0C0C037
:10189000C0C0C0C0C0C0C0C0C0C0C0C0C0FFFFFF8B
:1018A000FFFFFFFFFFFFFFFFFFFFFFFF0000000044
:1018B0000000000000FFFFFFFFFFFFFFFFFFFFFF33
:1018C000FFFFFFFF0000000000000000607F7F7F3F
:1018D0007F606060606363707C1C0000000000003B
:1018E00000000000000000000060607F7F7F7F60DC
:1018F000600000000000000060787F7F6F610101E0
:101900000101677F7F706060607F7F7F6060600043
:1019100000000000000000607F7F7F7F60606063E8
:101920006363707C1C607F7F7F7F60000107071FFF
:101930007E7C7060000000000000000000000000DD
:101940000000000000000000000000000000000097
:101950000000000000000000000000000000000087
:101960000000000000000000000000000000000077
:101970000000000000000000000000000000000067
:101980000000000000000000000000000000000057
:101990000000000000000000000000000000000047
:1019A00000000000FFFFFFFFFFFFFFFFFFFFFFFF43
:1019B000FFFFFFFFFFFFFFFFFFFFFFFFFFFFFFFF37
:1019C000FFFFFFFFFFFFFFFFFFFFFFFFFFFFFFFF27
:1019D000FFFFFFFF000000000000000000FFFFFF0E
:1019E000FFFFFFFFFFFFFFFFFFFFFFFF0000000003
:1019F00000000000000000000000000000000000E7
:101A000000000000000000000000000000000000D6
:101A100000000000000000000000000000000000C6
:101A200000000000000000000000000000000000B6
:101A300000000000000000000000000000000000A6
:101A40000000000000000000000000000000000096
:101A50000000000000000000000000000000000086
:101A60000000000000000000000000000000000076
:101A70000000000000000000000000000000000066
:101A80000000000000000000000000000000000056
:101A90000000000000000000000000000000000046
:101AA0000000000000000000000000000000000036
:101AB0000000000000000000000000000000000026
:101AC000000000000000000000000000FFFFFFFF1A
:101AD000FFFFFFFFFFFFFFFFFFFFFF1F1F1F1F1F76
:101AE0001F1F1F1F1F1F1F1F1F1F1F1F1F1F1F1F06
:101AF0001F1F1F1F1F1F1F1F1F1F1F1F0000000072
:101B00000000000000FFFFFFFFFFFFFFFFFFFFFFE0
:101B1000FFFFFFFF000000000000000000000000C9
:101B200000000000000000000000000000000000B5
:101B300000000000000000000000000000000000A5
:101B40000000000000000000000000000000000095
:101B50000000000000000000000000000000000085
:101B60000000000000000000000000000000000075
:101B70000000000000000000000000000000000065
:101B80000000000000000000000000000000000055
:101B90000000000000000000000000000000000045
:101BA0000000000000000000000000000000000035
:101BB0000000000000000000000000000000000025
:101BC0000000000000000000000000000000000015
:101BD0000000000000000000000000000000000005
:101BE00000000000000000000000000000000000F5
:101BF00000000000FFFFFFFFFFFFFFFFFFFFFFFFF1
:101C0000FFFFFFC0C0C0C0C0C0C0C0C0C0C0C0C017
:101C1000C0C0C0C0C0C0C0C0C0C0C0C0C0C0C0C0C4
:101C2000C0C0C0C0C0C0C0C0C0C0C0C0C0FFFFFFF7
:101C3000FFFFFFFFFFFFFFFFFFFFFFFF00000000B0
:101C40000000000000000000000000000000000094
:101C50000000000000000000000000000000000084
:101C60000000000000000000000000000000000074
:101C70000000000000000000000000000000000064
:101C80000000000000000000000000000000000054
:101C90000000000000000000000000000000000044
:101CA0000000000000000000000000000000000034
:101CB0000000000000000000000000000000000024
:101CC0000000000000000000000000000000000014
:101CD0000000000000000000000000000000000004
:101CE00000000000000000000000000000000000F4
:101CF00000000000000000000000000000000000E4
:101D000000000000000000000000000000000000D3
:101D1000000000000000000000000000FFFFFFFFC7
:101D2000FFFFFFFFFFFFFFFFFFFFFFFFFFFFFFFFC3
:101D3000FFFFFFFFFFFFFFFFFFFFFFFFFFFFFFFFB3
:101D4000FFFFFFFFFFFFFFFFFFFFFFFFFFFFFFFFA3
:101D5000FFFFFFFFFFFFFFFFFFFFFFFFFFFFFFFF93
:101D6000FFFFFFFF00000000000000000000000077
:101D70000000000000000000000000000000000063
:101D80000000000000000000000000000000000053
:101D90000000000000000000000000000000000043
:101DA0000000000000000000000000000000000033
:101DB0000000000000000000000000000000000023
:101DC0000000000000000000000000000000000013
:101DD0000000000000000000000000000000000003
:101DE00000000000000000000000000000000000F3
:101DF00000000000000000000000000000000000E3
:101E000000000000000000000000000000000000D2
:101E100000000000000000000000000000000000C2
:101E200000000000000000000000000000000000B2
:101E300000000000000000000000000000000000A2
:101E4000000000000707070707070707070707073E
:101E50000707070707070707070707070707070712
:101E60000707070707070707070707070707070702
:101E700007070707070707070707070707070707F2
:101E800007070707070707070707070700000000FE
:101E90000000000000000000000000000000000042
:101EA0000000000000000000000000000000000032
:101EB0000000000000000000000000000000000022
:101EC0000000000000000000000000000000000012
:101ED0000000000000000000000000000000000002
:101EE00000000000000000000000000000000000F2
:101EF00000000000000000000000000000000000E2
:101F000000000000000000000000000000000000D1
:101F100000000000000000000000000000000000C1
:101F200000000000000000000000000000000000B1
:101F30000000000000000000000000301E1E0E82A5
:101F4000C2F2FE3E3E0E000002FEFEFEFE828080D9
:101F50008082FEFEFE02000000E0F0FC0C0C02029B
:101F6000020CFCF0F0E0000002FEFE3E3EFCE0C091
:101F70008080022EDE02000080E0FC3C0E0E020299
:101F8000020C3C2C2C0000000000000002FEFEFEB3
:101F900002020000020EFEFEFE0E0200000202FE21
:101FA0003E7EFCE0E0C00002FE0E02020080F0FC7B
:101FB0003C3C0E0202020C0C3C000000021E1E7E85
:101FC000FEE2808080621E0200000202FEFEFE022F
:101FD0000000000002FE0E00000000008070707E15
:101FE000FEE08000000000000002FEFE3E7EF0E009
:101FF00080800002FE0E00000000000000000000D3
:1020000000000000000000000000000000000000D0
:1020100000000000000000000000000000000000C0
:1020200000000000000000000000000000000000B0
:1020300000000000000000000000000000000000A0
:102040000000000000000000000000000000808090
:102050008080808080808080800000000000000000
:102060000000003038383E3F27212030303C00004F
:10207000203F3F3F3F20000000203F3F3F20000027
:1020800000070F1F3030202020301F1F1F070000C7
:10209000203F3F30200001070F0F1E3E02000000CE
:1020A000030F1F1C30302021333F1F3F3F01001C16
:1020B0001C2C2C20203F3F0F0000000020303F3F11
:1020C0003F3020000020203F2020000101070F3E6C
:1020D0003F00000000030F1F3C3C202021331F1F46
:1020E0003F1B010000000020213F3F212120000074
:1020F000000000000F1F3F3020202020100F0000A4
:102100000020382E23020202032F3F3E3E302000E3
:1021100000203F3F2020000307070F3E3F00000044
:1021200000000000000000000000000000000000AF
:10213000000000000000000000000000000000009F
:10214000000000000000000000000000000000008F
:10215000000000000000000202020202060606065D
:10216000060E0F0F1F1F1F1F1F3F3F3F7F7F7F7FE9
:102170007FFFFFFFFFFFFFFFFFFFFFFFFFFFFFFFEF
:10218000FFFFFFFFFEFEFEFEFEFCFCFCF8F8F8F889
:10219000F0F0F0E0E0E0E0C0C0C0C0C0808080802F
:1021A000808080808080808080808080808080C0EF
:1021B000C0C0C0C0C0C0C0C0C0C0C0C0C0C0C0C01F
:1021C000C0C0C0C0E0E0E0E0E0606060606060600F
:1021D0006060606060606060E0F0F0F0F0F0F0F08F
:1021E000F0F0F0F0F0F0F0F0F0F0F0F0F0F0F0F8E7
:1021F000F8F8F8F0F0F0F0E0E0E0C0C0C0C0C08057
:10220000808080000000000000000000000000004E
:1022100000000000000000000000000000000000BE
:1022200000000000000000000000000000000000AE
:10223000000000000000000000000000000000009E
:10224000000000000000000000000000000000008E
:10225000000000000000000000000000000000007E
:10226000000000000000000000000000000000006E
:10227000000000000000000000000000000000005E
:10228000000000000000000000000000000000004E
:102290000000000000000000000101010101030333
:1022A0000307070707070F0F0F0F0F0F0F0F0F0F72
:1022B0000F0F0F0F0F0F0F07070707070707070776
:1022C00007070707070707070707030303030303B6
:1022D00003030303030303030303030303030101D2
:1022E00001010101010101010101010101010101DE
:1022F00001000000000000000000000000000000DD
:102300000101010103030307070707070F0F0F0F61
:102310001F1F1F3F3F3F3F3F7F7F7F7F7F7F7F7F2D
:102320007F7F7F7F7F7F7F7F7F7F7F7E7E7E7E7EC2
:102330007C7C7C3838383838303030303030303091
:1023400030303030303838383838383818181818B5
:102350001818181818181818181C1C1C1C1C1C1CE1
:102360001C1C1C1C1C1C1C1C1C1C1C1C3C3C3E3E29
:102370003E3E3E3E7E7E7E7E7E7E7EFEFEFEFCFC01
:10238000F8F8F0F0F0F0E0E0C0C0C0C080800000DD
:10239000000000000000000000000000000000003D
:1023A000000000000000000000000000000000002D
:1023B000000000000000000020E0C080E0E06000BD
:1023C00000C0C0C04040C0C00000000000E0E0000D
:1023D000000000C0C000000000E0E00000000000BD
:1023E000000000000000E0E000000000000000002D
:1023F0000000000000E0E0E0A0A0A0A0A0A0A0E0FD
:10240000E00000000000C0C040404040404040406C
:1024100040404040C0C0000000000000000000003C
:1024200000E0E0000000000000000000000040406C
:1024300040404040404040404040C0C0400000005C
:10244000000000E0E0E0000000000000E0E000002C
:10245000000000000000000000000000E0E0E000DC
:1024600040C080000000000080808080808080E08C
:10247000E0E080808080808080808000C0C0C0409C
:10248000C0C0C0C0C040404040C0C0C0000000004C
:102490000000000000C0C00000E0E00000000000FC
:1024A00000000000000040404040414141414141A6
:1024B0004141C3C3030303030307060604040400E6
:1024C0000800000000000000000000000000000004
:1024D000000000000000000000000000003031316A
:1024E0003131FFFF3131313130FFFFFF043FFBC09D
:1024F0000040407C3CFFFF04043C38FFFF043C3CB0
:1025000038FFFF0000000000FEFE02020202FFFF93
:1025100002020202FEFE00000000080808CBCBCB3E
:102520004A4A4E4E4A4A4ACBCB0808080800FFFFE9
:10253000080909F9F909F9F909090908FFFF000073
:10254000000000FFFFFF313131FFFF31313131FF3A
:10255000FF000000003030303030303030FCFCFC08
:102560003633313030303030020282FFFFFF7233B9
:1025700031F1F1F13F3FB1F171710100000202024E
:1025800082C27A3EFFFFFF3E7AC38302020200004E
:102590000080C0C070FCFF474444444444FCFC003D
:1025A00000000000FFFFFF0FFBF0FFFFFF32F2F221
:1025B00032BFFFFF400000407070380C0783F0709E
:1025C000700003070C38387040400000020202F22D
:1025D000F232323232F2F2020202FFFF0000000059
:1025E00000000000000000000000000000000000EB
:1025F00000000000000000000000000000000000DB
:1026000000000000001018180C07030103030E0C53
:10261000003F3F3F06060301002020301C0F03004F
:102620000000000F0F000000003F3F00000000000E
:102630000303010101013F3F010101010303000008
:1026400000000010180B030312323E1E02020203A8
:102650000B18100000003F3F14171713101013172A
:10266000141417173F3F000000000007070702027D
:10267000021F3F2222222227273C3C3C0000000070
:1026800000000010303F1F1F00000000000000008D
:102690000111313F3F1F202030101B1B0F0E1B313B
:1026A0002020200004060303010000003F3F3F00FC
:1026B000000001030306040001010000003F3F0287
:1026C00002020212323F1F00000000003F3F3F03A2
:1026D00003013F3F3F180803070D181810100000B2
:1026E0000000081C1E0B09080808090F1E18180016
:1026F000000000000000000F0F040404040F0F107E
:1027000030303F1F0000000000000000000000000B
:1027100000000000000000000000000000000000B9
:1027200000000000000000000000000000000000A9
:102730000000000000000000000000000000000099
:102740000000000000000000000000000000000089
:10275000000000000000000000000000002F00004A
:1027600000000700070000147F147F1400242A7F54
:102770002A120062640813230036495522500000D3
:102780000503000000001C224100000041221C0043
:102790000014083E08140008083E0808000000A0C5
:1027A00060000008080808080000606000000020C1
:1027B00010080402003E5149453E0000427F40009F
:1027C000004261514946002141454B310018141225
:1027D0007F10002745454539003C4A4949300001F2
:1027E0007109050300364949493600064949291E41
:1027F00000003636000000005636000000081422A3
:1028000041000014141414140000412214080002A2
:102810000151090600324959513E007C1211127CC7
:10282000007F49494936003E41414122007F4141F4
:10283000221C007F49494941007F09090901003EE6
:102840004149497A007F0808087F0000417F410024
:10285000002040413F01007F08142241007F40409A
:102860004040007F020C027F007F0408107F003E82
:102870004141413E007F09090906003E4151215E68
:10288000007F091929460046494949310001017F65
:102890000101003F4040403F001F2040201F003FFB
:1028A0004038403F006314081463000708700807AD
:1028B00000615149454300007F41410000552A55C0
:1028C0002A55000041417F0000040201020400403B
:1028D000404040400000010204000020545454785D
:1028E000007F48444438003844444420003844447D
:1028F000487F00385454541800087E09010200181B
:10290000A4A4A47C007F080404780000447D400057
:10291000004080847D00007F102844000000417F3B
:102920004000007C04180478007C08040478003817
:102930004444443800FC242424180018242418FC9F
:10294000007C0804040800485454542000043F4408
:102950004020003C4040207C001C2040201C003CCB
:102960004030403C004428102844001CA0A0A07C1B
:10297000004464544C441414141414140000000053
:1029800000000000000000000000FC00000000004B
:1029900002000000000C020C020000000000000019
:1029A00090D0BCD0BC900003000300001824FE446B
:1029B0008C000302070201001824D8B04C800003E9
:1029C00000010201C038E438E00001020201020205
:1029D000080600000000000000000000000000F8F1
:1029E0000402000000010204000204F800000004D8
:1029F000020100009060F8609000000001000000FB
:102A00002020FC2020000000010000000000000049
:102A10000000080600000000202020202000000008
:102A200000000000000000000000000200000000A4
:102A30000080601C0200040300000000F80404048D
:102A4000F8000102020201000008FC000000000280
:102A5000030200001884442418000302020202004A
:102A600008042424D80001020202010040B088FCBE
:102A700080000000000302003C242424C400010262
:102A800002020100F824242CC0000102020201000D
:102A90000C04E41C0400000003000000D8242424DB
:102AA000D80001020202010038444444F800000347
:102AB00002020100000010000000000002000000FF
:102AC00000002000000000000600000000205088E8
:102AD000040200000000010290909090900000001D
:102AE00000000000000204885020000201000000E5
:102AF0001804C4241800000002000000F804E49444
:102B0000F80001020202020000E09CF080000203D3
:102B10000000030204FC2424D80002030202010086
:102B2000F80404040C0001020202010004FC040485
:102B3000F80002030202010004FC24740C000203EA
:102B40000202030004FC24740C00020302000000D3
:102B5000F0080444CC4000010202010004FC2020E3
:102B6000FC040203000003020404FC04040002024B
:102B700003020200000404FC040406040403000031
:102B800004FC24D00C0402030200030204FC040031
:102B90000000020302020203FC3CC03CFC000300F4
:102BA0000300030004FC30C4FC0402030200030021
:102BB000F8040404F80001020202010004FC2424C9
:102BC0001800020302000000F8848404F8000102E7
:102BD0000207050004FC24649800020302000302BB
:102BE000182424448C000302020201000C04FC049B
:102BF0000C0000020302000004FC0000FC040001C1
:102C000002020100047C80E01C04000003000000BC
:102C10001CE03CE01C00000300030000049C609CDE
:102C20000400020300030200041CE01C0400000274
:102C3000030200000C84641C04000203020203006F
:102C40000000FE020200000007040400000E30C075
:102C50000000000000010200000202FE000000046B
:102C6000040700000004020400000000000000004F
:102C70000000000000000808080808080000020022
:102C800000000000000000000040A0A0C000000103
:102C90000202030204FC2020C00000030202010023
:102CA00000C02020600000010202020000C02024B9
:102CB000FC0000010202030200C0A0A0C00000014D
:102CC000020202000020F824240400020302020091
:102CD0000040A0A0602000070A0A0A0404FC20208B
:102CE000C0000203020003020020E4000000000212
:102CF00003020000000020E40000080808070000AC
:102D000004FC80E020200203020003020404FC0013
:102D10000000020203020200E020E020C0000300E5
:102D20000300030020E02020C00002030200030291
:102D300000C02020C00000010202010020E020208D
:102D4000C000080F0A02010000C02020E0000001BE
:102D5000020A0F0820E040202000020302000000C9
:102D60000060A0A020000002020203000020F82062
:102D7000000000000102020020E00020E00000014D
:102D80000202030220E02080602000000301000016
:102D90006080E0806000000300030000206080602D
:102DA000200002030003020020E0208060200808C9
:102DB000070100000020A0602000000203020200C2
:102DC000000020DE0200000000070400000000FFF9
:102DD00000000000000F00000002DE2000000004E0
:102DE00007000000020102040402000000000000CD
:102DF00000000000000000000000000000000000D3
:102E0000000000F800000000000000333000000067
:102E100000100C06100C060000000000000000006E
:102E200040C07840C0784000043F04043F040400E0
:102E3000007088FC08300000001820FF211E0000F0
:102E4000F008F000E018000000211C031E211E0005
:102E500000F00888700000001E212324192721108B
:102E600010160E000000000000000000000000002E
:102E7000000000E0180402000000000718204000D5
:102E800000020418E00000000040201807000000C5
:102E9000404080F0804040000202010F0102020029
:102EA000000000F0000000000101011F010101000D
:102EB000000000000000000080B070000000000072
:102EC00000000000000000000001010101010101FB
:102ED0000000000000000000003030000000000092
:102EE0000000000080601804006018060100000067
:102EF00000E010080810E000000F102020100F0064
:102F0000001010F8000000000020203F20200000EA
:102F10000070080808887000003028242221300042
:102F200000300888884830000018202020110E004A
:102F30000000C02010F8000000070424243F2400F3
:102F400000F80888880808000019212020110E00C8
:102F500000E0108888180000000F112020110E00DA
:102F600000380808C83808000000003F00000000D2
:102F70000070880808887000001C222121221C0093
:102F800000E010080810E0000000312222110F00BC
:102F9000000000C0C0000000000000303000000051
:102FA00000000080000000000000806000000000C1
:102FB00000008040201008000001020408102000DA
:102FC0004040404040404000040404040404040025
:102FD00000081020408000000020100804020100BA
:102FE000007048080808F0000000003036010000BA
:102FF000C030C828E810E0000718272423140B006D
:103000000000C038E0000000203C230202273820E6
:1030100008F8888888700000203F202020110E00CA
:10302000C0300808080838000718202020100800C1
:1030300008F808080810E000203F202020100F00AA
:1030400008F88888E8081000203F20202320180076
:1030500008F88888E8081000203F200003000000DE
:10306000C03008080838000007182020221E02007F
:1030700008F808000008F808203F210101213F203E
:10308000000808F8080800000020203F2020000069
:1030900000000808F8080800C08080807F00000059
:1030A00008F888C028180800203F20012638200092
:1030B00008F8080000000000203F202020203000F9
:1030C00008F8F800F8F80800203F003F003F200013
:1030D00008F830C00008F808203F200007183F001B
:1030E000E01008080810E0000F10202020100F004A
:1030F00008F808080808F000203F2101010100003D
:10310000E01008080810E0000F18242438504F0081
:1031100008F8888888887000203F2000030C302041
:1031200000708808080838000038202121221C007F
:10313000180808F8080818000000203F20000000C8
:1031400008F808000008F808001F202020201F00B1
:103150000878880000C83808000007380E01000011
:10316000F80800F80008F800033C0700073C0300DB
:10317000081868808068180820302C03032C302041
:103180000838C800C83808000000203F20000000B0
:1031900010080808C8380800203826212020180008
:1031A000000000FE020202000000007F40404000DC
:1031B000000C30C000000000000000010638C00014
:1031C00000020202FE000000004040407F000000BC
:1031D00000000402020204000000000000000000E1
:1031E00000000000000000008080808080808080DF
:1031F00000020204000000000000000000000000C7
:1032000000008080808000000019242222223F20BC
:1032100008F8008080000000003F112020110E00FF
:103220000000008080800000000E1120202011008E
:10323000000000808088F800000E112020103F2040
:103240000000808080800000001F222222221300C4
:10325000008080F0888888180020203F202000000F
:103260000000808080808000006B949494936000C4
:1032700008F8008080800000203F210000203F20CF
:1032800000809898000000000020203F20200000CF
:10329000000000809898000000C08080807F0000BF
:1032A00008F8000080808000203F24022D3020009C
:1032B000000808F8000000000020203F2020000047
:1032C0008080808080808000203F20003F20003F61
:1032D0008080008080800000203F210000203F206F
:1032E0000000808080800000001F202020201F0020
:1032F000808000808000000080FFA12020110E004F
:103300000000008080808000000E112020A0FF803F
:10331000808080008080800020203F2120000100EC
:103320000000808080808000003324242424190041
:10333000008080E0808000000000001F202000004E
:103340008080000000808000001F202020103F208F
:10335000808080000080808000010E30080601001F
:1033600080800080008080800F300C030C300F00C4
:1033700000808000808080000020312E0E312000EF
:10338000808080000080808080818E70180601001F
:1033900000808080808080000021302C222130003D
:1033A00000000000807C020200000000003F40405E
:1033B00000000000FF00000000000000FF0000000F
:1033C0000002027C800000000040403F000000003E
:1033D00000060101020204040000000000000000D9
:1033E00000000000000000000000000000000000DD
:1033F00000000000000000000000000000000000CD
:10340000000000000000000000F0F0F000000000EC
:103410000000000000017F0100000000000000002B
:10342000001C1C1C0000000000008060301C8C6030
:10343000301C0C0000000000000000000000000034
:10344000000000000000000000000000000000E09C
:103450000000000000E000000086E69F8686868669
:10346000E69F860000011F01010101011F0101000B
:10347000000080C06020F820E0C0000000000307CA
:103480000C18FF70E18100000000070F10107F1082
:103490000F0700008060206080000000E020000036
:1034A0000F3020309F70DC371030C0000000100E4D
:1034B00003000718101807000000C02020E0C0001B
:1034C0000000000080E01F38E88703C43C040000CF
:1034D000070F1810100B070D1010080000808C4CFF
:1034E00038000000000000000000000000000000A4
:1034F00000000000000000000000000000000000CC
:1035000000000000000080E030080400000000001F
:1035100000FEFF0100000000000000000000030F9B
:103520001820400000040830E08000000000000087
:103530000000000001FFFE00000000000040201815
:103540000F03000000000000000000000000C000A9
:1035500000000000004266663C18FF183C666642A8
:103560000000000000000300000000000000000058
:103570000000800000000000001010101010FF106C
:1035800010101010000000000000030000000000F8
:10359000000000000000000000000000000000002B
:1035A000000000000000000000808C4C380000008B
:1035B000000000000000000000000000000000000B
:1035C000001010101010101010101000000000005B
:1035D00000000000000000000000000000000000EB
:1035E00000000000000000000000000000000000DB
:1035F00000001C1C1C000000000000000000000077
:1036000000000000E0380C000000000080701C0387
:10361000000000000060380E010000000000000003
:10362000000080C060202060C080000000FEFF011C
:103630000000000001FFFE000001070E1810101826
:103640000E0701000000808080C0E0000000000044
:103650000000000000FFFF0000000000000010104C
:10366000101F1F101010000000804020202020603C
:10367000C080000000030300804020381F070000C6
:10368000001C1A1918181818181F00000080C020F4
:10369000202060C080000000000303001010182FDD
:1036A000E780000000070F10101010180F0700002F
:1036B000000000000000C0E0F000000000C0B08882
:1036C000868180FFFF808000000000000010101F36
:1036D0001F1010000000E06060606060606000002B
:1036E00000003F1008080818F0E0000000070B1069
:1036F0001010101C0F030000000080C0402020208C
:10370000E0C0000000FCFF211008080818F0E000ED
:103710000001070C18101010080F03000000C0E093
:103720006060606060E06000000003000000E0187E
:103730000700000000000000001F1F000000000044
:103740000080C0602020202060C080000087EF2C17
:103750001818303068CF830000070F0810101010C1
:10376000180F07000000C0C020202020C0800000EB
:10377000001F3F604040402010FFFE0000000C1C76
:10378000101010080F0300000000000000000000EF
:103790000000000000000000000E0E0E00000000FF
:1037A00000000000001C1C1C0000000000000000C5
:1037B000000000000000000000000000000C0C00F1
:1037C0000000000000000000005838000000000069
:1037D00000000000000000804020100000001028C1
:1037E000448201000000000000000000000001020F
:1037F00004081000000000000000000000000000AD
:103800000084848484848484848484000000000090
:1038100000000000000000000000102040800000B8
:103820000000000000000000000001824428100099
:1038300000001008040201000000000000C0202069
:103840001010101030E0C0000003030000F010085A
:103850000C070300000000001C1C1C0000000000FE
:10386000000000C0406020202040C00000FCFF019C
:10387000F00E03C1FE03807F0001070E0811111036
:10388000110904020000000080E0E00000000000D8
:103890000000807C4340477FF880000010181F1014
:1038A00000000000131F1C1020E0E02020202060FA
:1038B000C080000000FFFF10101010182FE78000DC
:1038C000101F1F1010101010180F0700000080C0EC
:1038D000402020202060E00000FCFF0100000000EC
:1038E000000001000001070E18101010080403006A
:1038F00020E0E02020202040C080000000FFFF00EA
:103900000000000001FFFE00101F1F10101018081B
:103910000E07010020E0E020202020202060800011
:1039200000FFFF101010107C00000000101F1F107F
:10393000101010101018060020E0E0202020202099
:103940006060800000FFFF101010107C000001007C
:10395000101F1F100000000000000000000080C0C9
:103960006020202040E0000000FCFF0100004040FB
:10397000C0C140400001070E181010100F0F0000CA
:1039800020E0E0200000000020E0E02000FFFF1029
:103990001010101010FFFF00101F1F10000000007B
:1039A000101F1F100000202020E0E0202020000039
:1039B0000000000000FFFF000000000000001010E9
:1039C000101F1F101010000000000000202020E039
:1039D000E020202000000000000000FFFF000000A9
:1039E0000060E0808080C07F3F00000020E0E02099
:1039F000000020A06020200000FFFF30187CE3C002
:103A000000000000101F1F10000001131F1C1810E1
:103A100020E0E020000000000000000000FFFF00A8
:103A20000000000000000000101F1F1010101010F8
:103A30001018060020E0E0E000000000E0E0E020D8
:103A400000FF013FFEC0E01E01FFFF00101F10003D
:103A5000031F0300101F1F1020E0E0C00000000043
:103A60000020E02000FF0003071C78E08000FF003A
:103A7000101F100000000000030F1F00000080C096
:103A800060202060C080000000FEFF0100000000F8
:103A900000FFFE000001070E181010180C070100AF
:103AA00020E0E0202020202060C0800000FFFF20D8
:103AB00020202020301F0F00101F1F1000000000CA
:103AC00000000000000080C060202060C080000076
:103AD00000FEFF010000000000FFFE000001070ED5
:103AE0001111133C7C67210020E0E02020202020E1
:103AF00060C0800000FFFF101030F0D0080F0700FA
:103B0000101F1F10000000030F1C10100080C06069
:103B1000202020204040E00000070F0C1818303013
:103B200060E08100001F0C0810101010180F070033
:103B30008060202020E0E020202060800100000044
:103B400000FFFF000000000100000000101F1F1018
:103B50000000000020E0E020000000000020E02045
:103B600000FFFF00000000000000FF0000070F182A
:103B700010101010100807002060E0E02000000086
:103B800020E060200000077FF88000807C030000B8
:103B900000000000071F1C070000000020E0E020DC
:103BA00000E0E0200020E0200007FFF8E01FFFFC1D
:103BB000E01F00000000031F0300011F03000000BE
:103BC000002060E0A0000020E06020000000000372
:103BD0008F7CF8C6010000000010181E13000117AA
:103BE0001F1810002060E0E02000000020E06020AE
:103BF000000001073EF8E018070000000000001078
:103C0000101F1F101000000000806020202020A046
:103C1000E0E0200000000000C0F03E0F03000000C4
:103C200000101C1F171010101018060000000000D4
:103C300000FC0404040404000000000000FF000075
:103C40000000000000000000007F404040404000B5
:103C5000000010E000000000000000000000000074
:103C6000031C608000000000000000000000000352
:103C70000C70800000000404040404FC0000000038
:103C800000000000000000FF0000000000004040B5
:103C90004040407F0000000000000010080C040CB1
:103CA00008100000000000000000000000000000FC
:103CB0000000000000000000000000000000000004
:103CC00000000000000000000000000000000000F4
:103CD00000000000808080808080808080808080E4
:103CE00000000004040808000000000000000000BC
:103CF00000000000000000000000000000000000C4
:103D000000000000000000000000000000000000B3
:103D1000000098D844642424FCF80000000F1F1809
:103D2000101010081F1F10180020E0F00000000005
:103D3000000000000000FFFF180804040CF8F00069
:103D400000001F0F18101010180F030000000000D3
:103D5000000000000000000000E0F8180404043C2B
:103D60003800000000030F0C1010101008060000AF
:103D70000000000000000020E0F0000000E0F81C5F
:103D800004040408FFFF000000030F1810101008BF
:103D90001F0F0800000000000000000000000000ED
:103DA0000000E0F8484444444C7870000000030FE1
:103DB0000C181010100804000000000080C06020E3
:103DC00020E0C00000040404FFFF04040404000019
:103DD000000010101F1F1010100000000000000055
:103DE0000000000000000000000070F88C04048C4B
:103DF000F874040C007076CF8D8D8D89C8787000B2
:103E00000020E0F000000000000000000000FFFFC4
:103E100008040404FCF8000000101F1F100000102C
:103E20001F1F100000000000006060000000000084
:103E30000000040404FCFC0000000000000010105E
:103E4000101F1F1010100000000000000000006094
:103E50006000000000000000040404FCFC000000FE
:103E60000000C0C08080C07F3F0000000020E0F064
:103E700000000000000000000000FFFF80C0F41CF4
:103E80000404000000101F1F1100031F1C1010006D
:103E90000000202020E0F0000000000000000000F2
:103EA00000FFFF000000000000001010101F1F1096
:103EB00010100000000000000000000000000000E2
:103EC00004FCFC0804FCFC0804FCFC00101F1F1090
:103ED000001F1F10001F1F10000000000000000046
:103EE000000000000004FCFC08080404FCF80000CA
:103EF00000101F1F100000101F1F10000000000006
:103F0000000000000000000000E0F0180C04040CA9
:103F100018F0E00000030F0C101010100C0F03003D
:103F20000000000000000000000000000004FCFC95
:103F3000080404040CF8F0000080FFFF88901010C3
:103F40001C0F030000000000000000000000000043
:103F500000E0F81C04040408F8FC000000030F183B
:103F600010109088FFFF800000000000000000009B
:103F700000000000040404FCFC100804040C0C0005
:103F80001010101F1F101010000000000000000093
:103F9000000000000000000000003078CCC48484E1
:103FA000840C1C0000001E1810101011190F0600C0
:103FB0000000000000C00000000000000004040435
:103FC000FFFF040404000000000000000F1F101099
:103FD000100C0000000000000000000000000000C5
:103FE0000004FCFE00000004FCFE000000000F1FA7
:103FF000181010081F0F080000000000000000004B
:104000000000000000040C3CFCC40000C43C0C0494
:1040100000000000010F1E0E010000000000000063
:104020000000000000000000043CFCC400E47CFC34
:1040300084807C040000071F070000071F070000A2
:104040000000000000000000000000000004041C4C
:104050007CE4C0341C0404000010101C1601131F63
:104060001C1810000000000000000000000000000C
:1040700000040C3CFCC400C43C0404000000C080EC
:10408000C1370E0100000000000000000000000029
:104090000000000000001C0404C4F47C1C040000A8
:1040A0000000101C1F17111010180E000000000057
:1040B000000000F80C04000000000000001028EFD1
:1040C00000000000000000000000003F6040000011
:1040D000000000000000FF000000000000000000E1
:1040E0000000FF0000000000000000000000FF00D2
:1040F000000000000000040CF800000000000000B8
:1041000000000000EF2810000000000000004060E8
:104110003F00000000000000001806020204081022
:104120002020300800000000000000000000000017
:104130000000000000000000000000000000F0107F
:10414000101010FF10101010F000000000000F04FD
:10415000040404FF040404040F0000004040405F16
:10416000555555755555555F404040000040200F4E
:10417000094989790909090F2040000000FE02421F
:104180004ACA4A4ACA4A4A4202FE000000FF405058
:104190004C4340404F50505C40FF00000000F88806
:1041A000888888FF88888888F800000000001F0839
:1041B0000808087F888888889F80F0008082828233
:1041C000828282E2A2928A868280800000000000C1
:1041D0000040807F0000000000000000101010FF71
:1041E000109008888888FF88888808000444827FA7
:1041F00001808040432C1028468180000010101060
:1042000010D030FF30D0121C101000001008040233
:10421000010000FF000001020408100004040484EF
:10422000E43C2724242424E40404040004020100C0
:10423000FF0909090949897F0000000000FE225A90
:104240008600FE9292929292FE00000000FF040807
:104250000700FF4020030C14224140000080402052
:104260001806800007182040800000000100207020
:10427000282621202024386000010100001012921D
:104280009292929292121202FE0000000000003FF1
:10429000101010103F0040807F000000000000C0A0
:1042A00080808080808080FC84808080808080C04E
:1042B000C0000000000000FF7F404040404040FF41
:1042C00040404040404040FF7F00000000000000B0
:1042D000000000000000007F7000000000000000EF
:1042E00000000000000000000000000000000000CE
:1042F000000000FCF80000000000000000000000CA
:104300000000000000000000FFFE020202020202A4
:10431000020202FFFF020202020202020202FF0385
:1043200000000000000000001F1F04040404040437
:10433000040404FFFF0404040404040404041F0030
:10434000000000000000000000000000000000006D
:104350000000007F3F00000000000000000000009F
:10436000000000000000000000000000000000004D
:10437000000000000000000000000000000000003D
:1043800000F8F8F0F07020000000000000000000CD
:10439000000000000000000000000000000000001D
:1043A000000000000000000000000000800000008D
:1043B00000000000000000000000000000000000FD
:1043C00000FFFFFFFF0000000000000000000000F1
:1043D00000000000000000008080000000000000DD
:1043E00000000000000000000000000000FFFFFED1
:1043F000060606060606060606060606060606065D
:1044000006FFFFFFFF060606060606060606060668
:1044100006060606060606FFFFFFFF07020000006D
:1044200000000000000000000000000000FFFFFF8F
:10443000000000000000000000000000000000007C
:1044400000FFFFFFFF000000000000000000000070
:1044500000000000000000FFFFFFFF000000000060
:1044600000000000000000000000000000FFFFFF4F
:1044700018181818181818181818181818181818BC
:1044800018FFFFFFFF181818181818181818181810
:1044900018181818181818FFFFFFFF000000000078
:1044A0000000000000000000000000000201010008
:1044B00000000000000000000000000000000000FC
:1044C00000FFFFFFFF0000000000000000000000F0
:1044D00000000000000000010100000000000000DA
:1044E00000000000000000000000000000000000CC
:1044F00000000000000000000000000000000000BC
:1045000000FFFFFFFF0000000000000000000000AF
:10451000000000000000000000000000000000009B
:10452000000000000000000000000000000000008B
:10453000000000000000000000000000000000007B
:10454000001F1F0F0F00000000000000000000000F
:10455000000000000000000000000000000000005B
:104560000000000000000000000000000102030441
:1045700006070809030406080C1018203000000084
:10458000A0450008000000200800000000120008FC
:10459000A845000808000020E016000010120008DE
:0845A0000000000080841E00F1
:04000005080000C12E
:00000001FF
