:020000040800F2
:10000000281A0020D1130008DD040008DF040008CE
:10001000E3040008E7040008EB0400080000000007
:10002000000000000000000000000000EF040008D5
:10003000F104000800000000F3040008F5040008C3
:10004000EB130008EB130008EB130008EB13000898
:10005000EB130008EB130008EB130008EB13000888
:10006000EB130008EB130008EB130008EB13000878
:10007000EB130008EB130008EB130008EB13000868
:10008000EB130008EB130008EB130008EB13000858
:10009000EB130008EB130008EB130008EB13000848
:1000A000EB130008EB130008EB130008EB13000838
:1000B000EB130008EB130008EB130008EB13000828
:1000C000EB130008EB130008EB130008EB13000818
:1000D000EB13000845130008EB130008EB130008AE
:1000E000EB130008EB130008EB130008EB130008F8
:1000F000EB130008EB130008EB130008EB130008E8
:10010000EB130008EB130008EB130008EB130008D7
:10011000EB130008EB130008EB130008EB130008C7
:10012000EB130008EB130008EB130008EB130008B7
:10013000EB130008EB130008EB130008EB130008A7
:10014000EB130008EB130008EB130008EB13000897
:10015000EB130008EB130008EB130008EB13000887
:10016000EB130008EB130008EB130008EB13000877
:10017000EB130008EB130008EB130008EB13000867
:10018000EB130008EB13000800F002F800F03CF855
:100190000AA090E8000C82448344AAF10107DA45E2
:1001A00001D100F031F8AFF2090EBAE80F0013F0F8
:1001B000010F18BFFB1A43F001031847C05100009C
:1001C000E0510000103A24BF78C878C1FAD852072D
:1001D00024BF30C830C144BF04680C6070470000C1
:1001E0000023002400250026103A28BF78C1FBD840
:1001F000520728BF30C148BF0B6070471FB502F0DF
:1002000051F81FBD10B510BD02F019F81146FFF7E7
:10021000F5FF00F009F802F037F803B4FFF7F2FF3A
:1002200003BC01F02FF800001CB52024A82000F02A
:10023000A7FF00F0F7FAFF2000234FF4947280210B
:100240000090824800F057FBFF2000F0FCFBFCE030
:1002500000F0E8FA00207E4980234FF49472CDE943
:100260000010014600F00CFF784800F012FC4FF43B
:100270007A7000F0E7FF4FF47A7000F0E3FF4FF47C
:100280007A7000F0DFFFFF2000F0DDFB00F0CAFA1B
:10029000002010230246014600903D2000F070FE31
:1002A000002010230122014600904D2000F068FE3E
:1002B000002010230222014600905D2000F060FE25
:1002C000002010230322014600906D2000F058FE0C
:1002D000002010230422014600907D2000F050FEF3
:1002E000002010230522014600908D2000F048FEDA
:1002F000002010230622014600909D2000F040FEC1
:1003000000201023072201460090AD2000F038FEA7
:1003100000201023082201460090BD2000F030FE8E
:1003200000201023092201460090CD2000F028FE75
:10033000002010230A2201460090DD2000F020FE5C
:100340000020102343A2142100906C2000F0ABFD8C
:100350000020102342A228210090502000F0A3FD8D
:100360000020102340A2282100909D2000F09BFD3A
:1003700000201023224628210090832000F0F7FC63
:100380000020102103232246CDE900102821C62099
:1003900000F0B1FD601CC4B27E2C00DD20240020E2
:1003A000102333A238210090212000F07CFD002092
:1003B000102337A249210090312000F074FD002065
:1003C00059234FF4947219460090012000F07EFBEF
:1003D0000020102335A25A210090352000F063FD43
:1003E0000020102338A26A2100904B2000F05BFD12
:1003F000164800F04EFB4FF47A7000F023FF4FF4E4
:100400007A7000F01FFF4FF47A7000F01BFF00F0CD
:1004100009FA0020009080234FF49472012101908A
:10042000084600F0AEFB094800F033FB4FF47A7049
:1004300000F008FF4FF47A7000F004FF4FF47A7078
:1004400000F000FFFF2000F0FEFA01E7300000207E
:10045000AE220008323031342F30352F30310000D9
:1004600041534349493A0000434F44453A00000094
:1004700057656C636F6D6520746F20322E39302D97
:10048000696E636820452D70617065720000000020
:1004900077697468203239362078203132382072FA
:1004A00065736F6C7574696F6E0000005A686F6ECB
:1004B000676A696E677975616E20456C65637472F1
:1004C0006F6E696300000000546563686E6F6C6F47
:1004D000677920436F2E2C4C74642E00704700BF48
:1004E000FEE700BFFEE700BFFEE700BFFEE7704784
:1004F00070477047704700000CB5002001900090D5
:100500007648006840F480307449086000BF734842
:10051000006800F4003000900198401C01900098A1
:1005200018B90198B0F5A04FF1D16C48006800F4FB
:10053000003010B10120009001E0002000900098F0
:10054000012846D165484030006840F0805063493A
:10055000403108606248006840F4404060490860EB
:100560005E48083000685D49083108600846006848
:1005700040F4004008600846006840F4A05008605D
:100580005848091F0860081F006840F08070091F64
:10059000086000BF5148006800F000700028F9D0E2
:1005A00040F20570504908604C480830006820F05F
:1005B00003004A49083108600846006840F002001C
:1005C000086000BF45480830006800F00C000828AB
:1005D000F8D10CBD10B54548006840F4700043499F
:1005E00008603E48006840F001003C490860002077
:1005F0003A4908310860394800683D4908403749A0
:1006000008603C48091D0860081F006820F480202D
:10061000091F0860002031490C310860FFF76CFFAA
:100620004FF0006031498039086010BD70B500207E
:100630000022022300240221284D08352D6805F0F0
:100640000C0020B1042806D0082834D107E02A4D38
:100650002A4E356033E02A4D284E35602FE01F4D7D
:100660002D1D2D68C5F380541C4D2D1D2D6805F0E2
:100670003F0154B1224DB5FBF1F5184E361D3668D9
:10068000C6F3881605FB06F209E01B4DB5FBF1F534
:10069000124E361D3668C6F3881605FB06F20F4D5E
:1006A0002D1D2D68C5F301456D1C6B00B2FBF3F5E4
:1006B000124E356003E0104D104E356000BF00BF94
:1006C000064D08352D68C5F303150E4E705D0B4DB4
:1006D0002D68C540094E356070BD000000380240ED
:1006E0000070004008544007003C024088ED00E0E4
:1006F000FFFFF6FE103000240024F400000000206C
:1007000000127A00040000201CB50121582001F0DD
:1007100013FA48F23200009001208DF80400002006
:100720008DF8060003208DF8050001208DF80700E4
:100730006946FE4800F062FF4FF4805000900120AF
:100740008DF8040000208DF8060003208DF80500C8
:100750006946F74800F052FF4FF480700090002087
:100760008DF8040001208DF807006946F14800F07B
:1007700045FF1CBD70B504460221EC4800F0BCFFEB
:10078000002519E04FF48051E94800F0B5FF04F06E
:10079000800020B12021E54800F0ACFF03E02021DB
:1007A000E24800F0A9FF4FF48051E14800F0A2FFB9
:1007B0006006040E681CC5B2082DE3DB0221DB488D
:1007C00000F098FF70BD10B504464FF40041D748C3
:1007D00000F092FF2046FFF7CDFF4FF40041D348D1
:1007E00000F088FF10BD10B504462046FFF7C2FF99
:1007F00010BD10B506E04FF48071CF4800F060FFE7
:1008000000B900E0F7E700BF10BD10B52220FFF7E8
:10081000DAFFF720FFF7E7FF2020FFF7D4FFFFF70D
:10082000E8FF10BD10B5FFF76FFF1021BF4800F0C3
:1008300063FF142000F006FD1021BC4800F05AFFB1
:10084000142000F0FFFCFFF7D4FF1220FFF7BBFFDE
:10085000FFF7CFFF0120FFF7B6FF2720FFF7C3FF09
:100860000120FFF7C0FF0120FFF7BDFF1120FFF7B8
:10087000AAFF0120FFF7B7FF4420FFF7A4FF0020E5
:10088000FFF7B1FF0F20FFF7AEFF4520FFF79BFFFB
:100890002720FFF7A8FF0120FFF7A5FF0020FFF7A3
:1008A000A2FF0020FFF79FFF3C20FFF78CFF0520F1
:1008B000FFF799FF2120FFF786FF0020FFF793FF46
:1008C0008020FFF790FF1820FFF77DFF8020FFF7C3
:1008D0008AFF4E20FFF777FF0020FFF784FF4F20AD
:1008E000FFF771FF2720FFF77EFF0120FFF77BFF57
:1008F000FFF77FFF10BD2DE9F0410646069F00205F
:100900008E4C2060204606600181428187810C4622
:100910004FEAE17C01EB5C7C4FEAEC0CA1EBCC0CE8
:10092000BCF1000F07D10D464FEAE57C05EB5C7C7E
:100930004FEAEC0C08E008464FEAE17C01EB5C7CF6
:100940004FEAEC0C0CF1010CDFF8F081A8F810C0B4
:1009500040464282C3810BB1B42B03D177488180DA
:10096000C28002E075488280C180BDE8F0812DE937
:10097000F04103461746714EF6893EB15A2E0CD00F
:10098000B42E15D0B6F5877F1CD118E06B4E368992
:10099000761A761EB0B21A4616E0684E3689F61AF6
:1009A000761EB0B2654E7689761A761EB2B20BE02C
:1009B0000846624E7689F61A761EB2B204E01846F0
:1009C0000A4601E0BDE8F08100BF06464FEAE07C40
:1009D00000EB5C7C4FEAEC0CDFF86081B8F810802B
:1009E00002FB08C4554E3668355DAFB906464FEA7E
:1009F000E07C00EB5C7C4FEAEC0CA0EBCC084FF009
:100A0000800C4CFA08FC25EA0C0CDFF83081D8F891
:100A1000008008F804C014E006464FEAE07C00EBD2
:100A20005C7C4FEAEC0CA0EBCC084FF0800C4CFA4D
:100A300008FC4CEA050CDFF80481D8F8008008F8BF
:100A400004C000BFBEE730B50246002110E0002020
:100A500008E03A4C248A01FB0403384D2D68EA541F
:100A6000441CA0B2354C248A8442F2DC4C1CA1B256
:100A7000324C648A8C42EADC30BD70B504460D46C7
:100A800016466A1E91B2621E90B23246FFF76FFFA1
:100A900070BD2DE9F047044600274FF494784FF0DD
:100AA00010092420FFF78FFE002609E0002504E04E
:100AB000E05DFFF798FE7F1C6D1C4545F8D3761C62
:100AC0004E45F3D3FFF7A1FEBDE8F0872DE9FF4FB8
:100AD00004460D4616461F46A146AA46301B01D4C1
:100AE000301B00E0A01B8346781B002801DC781B2C
:100AF00000E0E81B0390B44201DA012001E04FF06E
:100B0000FF300290BD4201DA012001E04FF0FF30DA
:100B1000019003980BEB00080020009000BF0098A4
:100B2000401CC0B200905146484609E0000C02400B
:100B3000001802400000024000100240EC120020A9
:100B40000D9AFFF79AFF4FEA48010398814208DBAC
:100B5000B14500D112E003988044029848441FFA3E
:100B600080F94FEA48005845D9DCBA4500D105E084
:100B7000D844019850441FFA80FAD0E700BFBDE87E
:100B8000FF8F2DE9F84780460E4691461F46DDE966
:100B9000094ABAF1000F0DD0354608E02B464A4607
:100BA000294640460094FFF791FF681C85B2BD427C
:100BB000F4DB1BE033464A46314640460094FFF7DB
:100BC00085FF3B464246314640460094FFF77EFF94
:100BD00033464A46394648460094FFF777FF3B467E
:100BE0004246394648460094FFF770FFBDE8F88753
:100BF0002DE9F04F05460E4692469B460024574687
:100C00000320A0EB4A001FFA80F9099800285ED063
:100C10005AE0A04643E006EB080291B22A1990B2CE
:100C20005A46FFF72AFF06EB080291B22A1B90B240
:100C30005A46FFF722FF321991B2A5EB080290B293
:100C40005A46FFF71AFF321B91B2A5EB080290B289
:100C50005A46FFF712FFA6EB080291B22A1B90B288
:100C60005A46FFF70AFFA6EB080291B22A1990B282
:100C70005A46FFF702FF321B91B205EB080290B211
:100C80005A46FFF7FAFE321991B205EB080290B20C
:100C90005A46FFF7F2FE08F101001FFA80F8B84546
:100CA000B9DDB9F1000F05DAA000801D48441FFA34
:100CB00080F907E0E01B80000A3048441FFA80F901
:100CC000781E87B2601C84B2BC42A2DD4DE04AE0CF
:100CD000F21991B22A1990B25A46FFF7CEFEF219D4
:100CE00091B22A1B90B25A46FFF7C7FE321991B251
:100CF000EA1B90B25A46FFF7C0FE321B91B2EA1BC4
:100D000090B25A46FFF7B9FEF21B91B22A1B90B27D
:100D10005A46FFF7B2FEF21B91B22A1990B25A4618
:100D2000FFF7ABFE321B91B2EA1990B25A46FFF7B9
:100D3000A4FE321991B2EA1990B25A46FFF79DFE0D
:100D4000B9F1000F05DAA000801D48441FFA80F9B0
:100D500007E0E01B80000A3048441FFA80F9781E43
:100D600087B2601C84B2BC42B2DDBDE8F08F2DE9D1
:100D7000FE4F0646884692461C46701C86B208F115
:100D800001001FFA80F80196CDF80080082C02D1EE
:100D90004FF006091FE02046E31704EB5373DB1006
:100DA00021464FEAE47C04EB5C7C4FEAEC0CA4EBBC
:100DB000CC0CBCF1000F02D04FF0010C01E04FF061
:100DC000000C6344224604EBD27C4FEA6C0C03FB1C
:100DD0000CF31FFA83F9AAF1200087B200255EE028
:100DE000082C07D107EB4700DD4901EB400010F864
:100DF00005B01DE00C2C07D107EB4700D94901EBEA
:100E0000800010F805B013E0102C05D1D64800EB97
:100E1000071010F805B00BE0182C07D107EBC7003E
:100E2000D24901EB800010F805B001E0BDE8FE8F6B
:100E3000002002901CE00BF0010028B14146304632
:100E40000C9AFFF71AFE09E00C9808B9012000E09F
:100E50000020024641463046FFF70FFE4FEA6B0B7B
:100E600008F101001FFA80F80298401C80B202903D
:100E700002980828DFDB701C86B2082C0BD004EB2C
:100E8000D4714A100199711A8A4204D1019E0098C6
:100E9000083080B20090DDF80080681C85B24D45B6
:100EA0009EDB00BFC2E72DE9F84106460F46144617
:100EB0001D46DDF81C800EE0CDF8008022782B4620
:100EC00039463046FFF753FF641C284605EBD071C6
:100ED00006EB61018EB220780028EDD1BDE8F881E3
:100EE00010B50246012000E050430B1EA1F10104A1
:100EF000A1B2F9D110BD2DE9FF4F82B0064691464F
:100F00001F46DDE90F4A4FF0000B082C01D14FF0CE
:100F1000020B00252FE0781B401E81B20A20FFF74C
:100F2000DFFFB9FBF0F00A21B0FBF1F201FB120880
:100F3000B8F1000F0ED104EBD4710BEB610101FB92
:100F4000056188B223463022CDE900A40399FFF75A
:100F50000EFF0EE004EBD4710BEB610101FB0561A8
:100F600088B2234608F13002CDE900A40399FFF7C7
:100F7000FEFE681CC5B2BD42CDDB06B0BDE8F08FF9
:100F80002DE9FC4F0646884617461C462046E217C8
:100F900004EB5272D2102146E31704EB5373DB10BB
:100FA000A4EBC3030BB1012300E000231A44624306
:100FB00092B20092701C86B208F101001FFA80F80C
:100FC000B146C246002556E0102C05D1684800EB1A
:100FD0004710405D01901BE0182C07D107EBC700BC
:100FE000644901EBC000405D019011E0202C05D167
:100FF000614800EBC710405D019009E0402C05D12D
:101000005E4800EB4720405D019001E0BDE8FC8FA9
:101010004FF0000B1EE0019800F0010028B141469E
:1010200030460B9AFFF729FD09E00B9808B901201B
:1010300000E00020024641463046FFF71EFD0198C1
:101040004010019008F101001FFA80F80BF1010037
:101050001FFA80FBBBF1080FDDDB701C86B2A6EB2C
:101060000900A04204D14E460AF108001FFA80FA96
:10107000D046681C85B200988542A5DB00BFC5E755
:101080002DE9FF4F05460E4617461C46DDF8389001
:101090004FF0000A681C85B2701C86B20095B346FA
:1010A0002046E21704EB5272D2102146E31704EBFC
:1010B0005373DB10A4EBC3030BB1012300E0002347
:1010C0001A4494B24FF0000845E0002003903BE042
:1010D0000D9810F80A0002900AF101001FFA80FA38
:1010E000002001901DE0029800F0010058B1B9F114
:1010F000000F01D1012000E00020024631462846C1
:10110000FFF7BBFC04E04A4631462846FFF7B5FC32
:10111000029840100290701C86B20198401C80B268
:10112000019001980828DEDB681C85B20098281A17
:10113000B84204D1009D0BF108001FFA80FB5E4607
:101140000398401C80B203900398B842C0DB08F1BA
:1011500001001FFA80F8A045B7DBBDE8FF8F000053
:101160006A35000892370008063C0008F64100087E
:10117000524F0008B2500008FA5000087A51000897
:1011800010B504466FF0040000F094F9E11704EB89
:101190005171C1F3C701394A11701046007800EB54
:1011A0004001C1EBC0104FF6FF7101EAC0003449A5
:1011B000088010BD0146314A12784A434FF0E023BF
:1011C0005A6100229A611A46126942F001021A61BC
:1011D00000BF4FF0E022106900F001021AB100F4E4
:1011E0008032002AF5D04FF0E022126922F001028D
:1011F0004FF0E0231A6100229A6170470146204AAD
:1012000012884A434FF0E0235A6100229A611A463D
:10121000126942F001021A6100BF4FF0E02210692A
:1012200000F001021AB100F48032002AF5D04FF02C
:10123000E022126922F001024FF0E0231A6100223D
:101240009A61704770B504464FF4077094FBF0F054
:10125000C6B24FF4077094FBF0F100FB114085B269
:1012600005E04FF40770FFF7C9FF701EC6B2002EED
:10127000F7D115B12846FFF7C1FF70BD140000205B
:1012800016000020014600BF704700BF4C4A12887C
:1012900002F04002002AF9D0C2B2494B9A8070474E
:1012A00010B588B004460121084600F045FC012134
:1012B000102000F09BFC07220921424800F029FA87
:1012C00007220A213F4800F024FA4FF4C06006903C
:1012D00002208DF81C008DF81D0000208DF81E00E6
:1012E00001208DF81F0006A9364800F087F9029406
:1012F0000020ADF80C00ADF80E00ADF81000ADF810
:1013000014000C20ADF8120002A92D4800F0CFFD0A
:1013100001212B4800F053FE012240F225512848BC
:1013200000F003FF25208DF8040003208DF8050050
:101330008DF8060001208DF8070001A800F06DF877
:1013400008B010BD10B540F225511D4800F028FF2F
:1013500010B31B4800F062FEC4B21B48008800F4C2
:101360000040C8B91848008800F4804060B10A2CD9
:1013700003D000201449088020E01348008840F47E
:1013800000401149088019E00D2C06D10E48008854
:1013900040F480400C49088010E00B480088C0F3FE
:1013A0000D000A490C5408480088401C0649088072
:1013B00008460088C72801DD0020088010BD000015
:1013C00000100140000002401C000020001300201B
:1013D0000948804709480047FEE7FEE7FEE7FEE7C9
:1013E000FEE7FEE7FEE7FEE7FEE7FEE70448054905
:1013F000054A064B70470000D50500088901000822
:1014000028140020281A0020281600202816002062
:1014100032490143324A1160704770B50021002300
:101420000F22C4781CB32E4C246804F4E064C4F585
:10143000E064C4F30721C1F10404E3B20A41447833
:101440009C40E1B28478144021430C07210E254CC6
:1014500005786155047804F01F050124AC40057837
:101460006D11AD0005F1E025C5F8004109E00478F3
:1014700004F01F050124AC401B4D0678761145F899
:10148000264070BD194A0A400243154B1B1F1A60C3
:10149000704739B1124A121D12680243104B1B1DCE
:1014A0001A6006E00E4A121D126882430C4B1B1D87
:1014B0001A607047042808D14FF0E021096941F013
:1014C00004014FF0E022116107E04FF0E0210969CB
:1014D00021F004014FF0E022116170470000FA058D
:1014E0000CED00E000E400E080E100E080FFFF1F81
:1014F00010B504469848844208D10121084600F0FE
:1015000086FB0021012000F082FB76E093488442B4
:1015100008D10121022000F07AFB0021022000F016
:1015200076FB6AE08E48844208D10121042000F055
:101530006EFB0021042000F06AFB5EE089488442D3
:1015400008D10121082000F062FB0021082000F0F2
:101550005EFB52E08448844208D10121102000F053
:1015600056FB0021102000F052FB46E07F488442E9
:1015700008D10121202000F04AFB0021202000F0AA
:1015800046FB3AE07A48844208D10121402000F02D
:101590003EFB0021402000F03AFB2EE075488442DB
:1015A00008D10121802000F032FB0021802000F0D2
:1015B0002EFB22E07048844208D10121801500F002
:1015C00026FB0021A01500F022FB16E06B488442A8
:1015D00008D10121401500F01AFB0021601500F030
:1015E00016FB0AE06648844207D10121001500F08D
:1015F0000EFB0021201500F00AFB10BDF0B50A46D5
:1016000000210023002400BF3DE0012505FA01F37D
:10161000156805EA03049C4234D105684F0003268F
:10162000BE40B543056015794E00B54006683543A8
:1016300005601579012D02D01579022D16D1856826
:101640004F000326BE40B543856055794E00B54036
:10165000866835438560456801268E40B543456000
:10166000456896798E40B6B235434560C5684F00EF
:101670000326BE40B543C560D5794E00B540C66867
:101680003543C560491C1029BFD3F0BD4FF6FF712B
:1016900001600021017141718171C171704708B50C
:1016A0004FF480320092009A0A430092009AC2617D
:1016B000C161009AC261C2690092C269009208BD0C
:1016C0000246002013690B400BB1012000E000200E
:1016D00070470146086980B270470246002053698E
:1016E0000B400BB1012000E0002070470146486923
:1016F00080B2704701837047418370470AB101830C
:1017000000E0418370474161704742694A4042614D
:101710007047F0B5002300244D07ED0E02FA05F3E3
:10172000CE1000F1200555F826504E07F70E0F2673
:10173000BE40B543CF1000F1200646F82750CE102A
:1017400000F1200555F8265045EA0304CE1000F1BB
:10175000200545F82640F0BD00000240000402408C
:1017600000080240000C0240001002400014024039
:1017700000180240001C02400020024000240240E9
:1017800000280240F948006840F00100F74908606D
:101790000020F64908310860F4480068F449084020
:1017A000F2490860F348091D0860F348EF498431A5
:1017B0000860F0481038091D0860EC48006820F403
:1017C0008020EA4908600020E8490C310860E749B8
:1017D0008C31086070470021E44A921C1170114658
:1017E0000870704710B501460022002300204A11FE
:1017F000012A02D1DD4C236808E0022A03D1DB4C28
:101800007034236802E0D94C7434236801F01F025D
:10181000012494401C400CB1012000E0002010BDC8
:1018200038B5002000900024002500BF3120FFF7CC
:10183000D9FF05460098401C00900098B0F5A04FD5
:1018400001D0002DF2D03120FFF7CCFF08B10124E8
:1018500000E00024204638BD01460020C34A10683D
:1018600020F0F80040EAC10010607047C3490860EA
:1018700070470021BD4A703211701170012802D0EA
:1018800004280AD104E00121B84A7032117005E041
:101890000521B64A7032117000E000BF00BF7047EA
:1018A000B7490860704770B5049C41EA821501266B
:1018B000C6EB530645EA0645054345EA0465AB4ECB
:1018C000361D356070BDAD4908667047820142EA39
:1018D0000172A64B84331A607047A8498866704726
:1018E00010B5830143EA016343EA02739F4C8834D5
:1018F000236010BDA14908677047A049C8647047BC
:1019000002460020994B0833186820F0EC6042EA48
:1019100001031843954B08331860704702460020B6
:10192000924B0833186820F0784042EA01031843CC
:101930008E4B083318607047014600208B4A0832EE
:10194000106820F003000843106070478748083093
:10195000006800F00C00704701460020834A0832FE
:10196000106820F0F0000843106070470146002026
:101970007E4A0832106820F4E05008431060704737
:1019800001460020794A0832106820F4604040EA9D
:10199000C10010607047F0B500210022002402252C
:1019A00000260223714F08373F6807F00C0121B170
:1019B000042905D0082937D105E0724F076036E0C9
:1019C000714F076033E0694F3F1D3F68C7F3805692
:1019D000664F3F1D3F6807F03F036EB16A4FB7FB8C
:1019E000F3F7DFF888C10CF1040CDCF800C0CCF38D
:1019F000881C07FB0CF40CE0624FB7FBF3F7DFF831
:101A00006CC10CF1040CDCF800C0CCF3881C07FBA3
:101A10000CF4564F3F1D3F68C7F301477F1C7D0004
:101A2000B4FBF5F7076002E0564F076000BF00BF48
:101A30004E4F08373F6807F0F0010909534F7A5CB1
:101A40000768D7404760494F08373F6807F4E051BF
:101A5000890A4E4F7A5C4768D7408760434F083702
:101A60003F6807F46041490B484F7A5C4768D740AC
:101A7000C760F0BD002100F44072B2F5407F0AD18A
:101A80003A4A0832116821F4F811414A02401143E0
:101A9000364A08321160354A70321268C0F30B03BF
:101AA0001A43324B70331A60704735494439086025
:101AB00070473349403908607047364908607047BD
:101AC00001460020294A8C32106820F01F004A1E6F
:101AD0001043264A8C321060704701460020234A8A
:101AE0008C32106820F4F8504A1E40EA02201F4A47
:101AF0008C3210607047014600201C4A8C321068FE
:101B000020F4401008431060704701460020174A37
:101B10008C32106820F44000084310607047014682
:101B20000020124A8C32106820F4403008431060C4
:101B3000704719490860704739B10C4A3032126851
:101B400002430A4B30331A6006E0084A303212680A
:101B50008243064B30331A607047F9B1034A34327E
:101B600012680243014B34331A601CE00038024013
:101B7000FFFFF6EA1030002400300020000047424A
:101B8000800E47420024F40000127A001E0000205C
:101B9000FFFCFF0F5C014742E01147428F4A126889
:101BA00082438E4B1A60704739B18C4A121D1268FD
:101BB00002438A4B1B1D1A6006E0884A121D1268F8
:101BC0008243864B1B1D1A60704739B1834A0C3221
:101BD00012680243814B0C331A6006E07F4A0C32D4
:101BE000126882437D4B0C331A60704739B17B4ACF
:101BF000103212680243794B10331A6006E0774ABC
:101C0000103212688243754B10331A60704739B135
:101C1000724A243A12680243704B243B1A6006E071
:101C20006E4A243A126882436C4B243B1A60704718
:101C300039B16A4A203A12680243684B203B1A6065
:101C400006E0664A203A12688243644B203B1A60E1
:101C5000704739B1614A1C3A126802435F4B1C3B22
:101C60001A6006E05D4A1C3A126882435B4B1C3BDB
:101C70001A60704739B1594A143A12680243574BF7
:101C8000143B1A6006E0554A143A12688243534BDB
:101C9000143B1A60704739B1504A103A1268024337
:101CA0004E4B103B1A6006E04C4A103A12688243D1
:101CB0004A4B103B1A60704739B1484A1C321268CF
:101CC0000243464B1C331A6006E0444A1C32126839
:101CD0008243424B1C331A60704739B13F4A20326D
:101CE000126802433D4B20331A6006E03B4A203223
:101CF00012688243394B20331A60704739B1374A32
:101D0000243212680243354B24331A6006E0334A0A
:101D1000243212688243314B24331A60704739B140
:101D20002E4A2C32126802432C4B2C331A6006E0E8
:101D30002A4A2C3212688243284B2C331A6070478F
:101D400039B1264A303212680243244B30331A60CC
:101D500006E0224A303212688243204B30331A6048
:101D60007047012808D11D493C31096841F008013C
:101D70001A4A3C32116007E018493C31096821F0E9
:101D80000801164A3C321160704739B1134A273AAC
:101D900012780243114B273B1A7006E00F4A273A8C
:101DA000127882430D4B273B1A7070470B48403026
:101DB000006840F080700949403108607047014672
:101DC0000020064A283A12680A400AB1012000E0C1
:101DD00000207047014926390870704734380240A6
:101DE00010B50446FA48844208D101211020FFF7BB
:101DF00052FF00211020FFF74EFF57E0F5488442C4
:101E000009D101214804FFF735FF00214FF40030CC
:101E1000FFF730FF4AE0F048844209D101218804ED
:101E2000FFF728FF00214FF48020FFF723FF3DE05C
:101E3000EA48844209D10121C804FFF71BFF0021B1
:101E40004FF40020FFF716FF30E0E548844209D147
:101E500001210805FFF70EFF00214FF48010FFF766
:101E600009FF23E0DF48844208D101212020FFF749
:101E700012FF00212020FFF70EFF17E0DA4884420E
:101E800009D101218807FFF7F5FE00214FF08040BE
:101E9000FFF7F0FE0AE0D548844207D10121400552
:101EA000FFF7E8FE00216005FFF7E4FE10BD2DE915
:101EB000FF4705460E460024A14600BFA046B08954
:101EC00000B100BF2C8A24F44054F08804432C82D3
:101ED000AC8941F20C608443B08831890843718930
:101EE00008430443AC81AC8A24F44074B0890443B1
:101EF000AC826846FFF74FFDB548854202D0B9482D
:101F0000854202D1DDF80C9001E0DDF80890A88947
:101F100000F4004040B109EBC90000EB0910316842
:101F20004900B0FBF1F707E009EBC90000EB09102D
:101F300031688900B0FBF1F76420B7FBF0F00401D1
:101F40002009642101FB1078A88900F4004040B109
:101F5000322000EBC800B0FBF1F000F007000443B2
:101F600008E0322000EB08106421B0FBF1F000F033
:101F70000F0004432C81BDE8FF874FF41651016028
:101F800000218180C18001810C214181002181815A
:101F9000704710B502460020108A20F470600B884C
:101FA0004C8823438C882343CC88234318431082D6
:101FB00010BD0021018041808180C180704721B126
:101FC000828942F40052828104E082894DF6FF73D7
:101FD0001A4082817047028B02F47F420283028B97
:101FE0000A430283704721B1828942F40042828110
:101FF00003E08289C2F30E028281704721B1828A96
:1020000042F40062828204E0828A4FF2FF731A4037
:1020100082827047C1F30802828070470146888837
:10202000C0F308007047028A4FF6F0731A4002822C
:10203000028A0A430282704721B1828942F0020279
:10204000828104E082894FF6FD731A4082817047D5
:1020500082894FF2FF731A40828182890A4382810A
:102060007047028A4FF6DF731A400282028A0A43DF
:102070000282704721B1028A42F48042028204E067
:10208000028A4BF6FF731A4002827047818941F041
:1020900001018181704721B1828A42F00802828267
:1020A00004E0828A4FF6F7731A4082827047028BEF
:1020B000D2B20283028B42EA01220283704721B12D
:1020C000828A42F02002828204E0828A4FF6DF7325
:1020D0001A408282704721B1828A42F010028282C5
:1020E00004E0828A4FF6EF731A4082827047828A38
:1020F0004FF6FB731A408282828A0A4382827047BB
:1021000021B1828A42F00202828204E0828A4FF682
:10211000FD731A40828270471AB1838A0B4383820F
:1021200002E0838A8B4383827047F0B50346002424
:1021300000260025002040F66A17B94200D100BFF2
:102140001846C1F3421401F01F06012707FA06F5ED
:10215000012C01D10C3004E0022C01D1103000E040
:1021600014301AB107682F43076002E00768AF43D5
:102170000760F0BD02460020B1F5007F00D100BF2E
:1021800013880B400BB1012000E00020704701F4E0
:102190000072B2F5007F00D100BFCA4302807047D1
:1021A00070B50246002400230025002040F66A1680
:1021B000B14200D100BFC1F3421501F01F03012657
:1021C00006FA03F3012D13D19689334017E000007E
:1021D000001001400044004000480040004C004016
:1021E000005000400014014000780040007C004096
:1021F000022D02D1168A334001E0968A33400C1238
:10220000012606FA04F41688344013B10CB10120FB
:1022100000E0002070BD10B50022002340F66A14D3
:10222000A14200D100BF0A1201249440A3B2DC43B2
:10223000048010BD704770477047704770477546FF
:1022400000F02CF8AE4605006946534620F0070022
:10225000854618B020B5FFF7C9F8BDE820404FF01B
:1022600000064FF000074FF000084FF0000B21F080
:102270000701AC46ACE8C009ACE8C009ACE8C0094D
:10228000ACE8C0098D46704710B50446AFF3008036
:102290002046BDE81040FDF7C0BF00000048704771
:1022A000C81300204FF04070E1EE100A70470000A4
:1022B000000000000000000000000000000000001E
:1022C000000000000000000000000000000000000E
:1022D00000000000000000000000000000000000FE
:1022E00000000000000000000000000000000000EE
:1022F00000000000000000000000000000000000DE
:1023000000000000000000000000000000000000CD
:1023100000000000000000000000F0F0F0F0F0F01D
:10232000F0F0F0F0F0F0F0F0F0F0F0F0F0F0F0F0AD
:10233000F0F0F0F0F0F0F0F0F0F0F0F0F0F0F0F09D
:10234000F0F0F0F0F0F0F0F0F0F00000000000002D
:10235000000000F0F0F0F0F0F0F0F0F0F0F0F0F04D
:10236000F0F000000000000000000000000000008D
:10237000000000000000000000000000000000005D
:10238000000000000000000000000000000000004D
:10239000000000000000000000000000000000003D
:1023A000000000000000000000000000000000002D
:1023B000000000000000000000000000000000001D
:1023C000000000000000000000000000000000000D
:1023D0000000000000000000000000000060E0E0DD
:1023E000E0E06060606060E0E0E08000000000002D
:1023F00000000000000000000000000000606060BD
:1024000060E0E0E06060606000000060E0E0E0E06C
:102410008000606060E0E06060E0E0E0E06000E0DC
:10242000E0E0E0E0600000000000000000000000CC
:10243000000000000000000000000000000000009C
:102440000000FFFFFFFFFFFFFFFFFFFFFFFFFFFF9A
:10245000FFFFFFFFFFFFFFFFFFFFFFFFFFFFFFFF8C
:10246000FFFFFFFFFFFFFFFFFFFFFFFFFFFFFFFF7C
:10247000FFFF000000000000000000FFFFFFFFFF63
:10248000FFFFFFFFFFFFFFFFFFFF00000000000056
:102490000000C0C0C0C0C0C0C0C0C0C0C0C0C0007C
:1024A000000000000000000000000000000000002C
:1024B000C0C0C0C0C0C0C0C0C0C0C08080000000DC
:1024C00000000000C0C0C0C00000000000C0C0C0CC
:1024D000C0C0C0C0C0C0C0C08080000000C0C0C0BC
:1024E000C0C0C0C0C0C0C0C0C0C000C0C0C0C0C0AC
:1024F000C0C0C0C0C0C0C08000000000000000001C
:10250000000000000000FFFFFFFF303030FCFCFC4B
:1025100000030300000030303030303030303030D5
:10252000303030000000000000FFFFFF000000001E
:1025300000000000FFFFFF0F3FFEF8F8C0FFFF00A4
:1025400000FFFFFFFF7C7EFFFFE381000000000033
:10255000000000000000000000000000000000007B
:1025600000000000000000000000FFFFFFFFFFFF71
:10257000FFFFFFFFFFFFFFFFFF030303030303034F
:102580000303030303030303030303FFFFFFFFFF2F
:10259000FFFFFFFFFFFFFFFFFFFF00000000000045
:1025A0000000000303030303030303030303030304
:1025B0000303000000000000000000FFFFFFFF60B9
:1025C000606060F8F90107070000606060606060AB
:1025D000606060606060600000FFFFFFFFC0C0C01F
:1025E000E0E1E17F7F3F00000000F0FF9F87FFFFF9
:1025F000FEE00000000000FFFFFFC0C0C0C0E0E13F
:102600007F7F3F3F0000FFFFFFFF606060F8F9F948
:1026100001070700FFFFFFFF6060E0E0E0F13F3FE0
:102620001F000000000000000000000000303F3FDD
:102630003F3F303030313131383E0E000000000075
:1026400000000000000000000000000000303030FA
:10265000303F3F3F30303030000030303F3F3F3080
:10266000300007071F3F3F00303F3F3F3F30000132
:1026700001373F3E3830300000000000000000000D
:10268000000000000000000000000000000000004A
:10269000000083C3C3C3C3C3C3C3C3C3C3C3C3C3D0
:1026A000C3C0C0C0C0C0C0C0C0C0C0C0C0C0C0C027
:1026B000C0C0C0FFFFFFFFFFFFFFFFFFFFFFFFFFE7
:1026C000FFFF000000000000000000FFFFFFFFFF11
:1026D000FFFFFFFFFFFFFFFFFFFF00000000000004
:1026E0000000607F7F7F7F606060606363707C1C40
:1026F000000000000000000000000000000000607A
:10270000607F7F7F7F6060000000000000006078D5
:102710007F7F6F6101010101677F7F706060607F73
:102720007F7F6060600000000000000000607F7F2D
:102730007F7F606060636363707C1C607F7F7F7FEE
:1027400060000107071F7E7C706000000000000031
:102750000000000000000000000000000000000079
:102760000000000000000000000000000000000069
:102770000000000000000000000000000000000059
:102780000000000000000000000000000000000049
:102790000000000000000000000000000000000039
:1027A0000000000000000000000000000000000029
:1027B00000000000000000000000FFFFFFFFFFFF1F
:1027C000FFFFFFFFFFFFFFFFFFFFFFFFFFFFFFFF19
:1027D000FFFFFFFFFFFFFFFFFFFFFFFFFFFFFFFF09
:1027E000FFFFFFFFFFFFFFFFFFFF000000000000F3
:1027F000000000FFFFFFFFFFFFFFFFFFFFFFFFFFE6
:10280000FFFF0000000000000000000000000000CA
:1028100000000000000000000000000000000000B8
:1028200000000000000000000000000000000000A8
:102830000000000000000000000000000000000098
:102840000000000000000000000000000000000088
:102850000000000000000000000000000000000078
:102860000000000000000000000000000000000068
:102870000000000000000000000000000000000058
:102880000000000000000000000000000000000048
:102890000000000000000000000000000000000038
:1028A0000000000000000000000000000000000028
:1028B0000000000000000000000000000000000018
:1028C0000000000000000000000000000000000008
:1028D00000000000000000000000000000000000F8
:1028E0000000FFFFFFFFFFFFFFFFFFFFFFFFFFFFF6
:1028F000FF1F1F1F1F1F1F1F1F1F1F1F1F1F1F1F08
:102900001F1F1F1F1F1F1F1F1F1F1F1F1F1F1F1FD7
:102910001F1F000000000000000000FFFFFFFFFF7E
:10292000FFFFFFFFFFFFFFFFFFFF000000000000B1
:102930000000000000000000000000000000000097
:102940000000000000000000000000000000000087
:102950000000000000000000000000000000000077
:102960000000000000000000000000000000000067
:102970000000000000000000000000000000000057
:102980000000000000000000000000000000000047
:102990000000000000000000000000000000000037
:1029A0000000000000000000000000000000000027
:1029B0000000000000000000000000000000000017
:1029C0000000000000000000000000000000000007
:1029D00000000000000000000000000000000000F7
:1029E00000000000000000000000000000000000E7
:1029F00000000000000000000000000000000000D7
:102A000000000000000000000000FFFFFFFFFFFFCC
:102A1000FFFFFFFFFFFFFFFFFFC0C0C0C0C0C0C07F
:102A2000C0C0C0C0C0C0C0C0C0C0C0C0C0C0C0C0A6
:102A3000C0C0C0C0C0C0C0C0C0C0C0C0C0C0C0C096
:102A4000C0C0C0FFFFFFFFFFFFFFFFFFFFFFFFFF53
:102A5000FFFF000000000000000000000000000078
:102A60000000000000000000000000000000000066
:102A70000000000000000000000000000000000056
:102A80000000000000000000000000000000000046
:102A90000000000000000000000000000000000036
:102AA0000000000000000000000000000000000026
:102AB0000000000000000000000000000000000016
:102AC0000000000000000000000000000000000006
:102AD00000000000000000000000000000000000F6
:102AE00000000000000000000000000000000000E6
:102AF00000000000000000000000000000000000D6
:102B000000000000000000000000000000000000C5
:102B100000000000000000000000000000000000B5
:102B200000000000000000000000000000000000A5
:102B30000000FFFFFFFFFFFFFFFFFFFFFFFFFFFFA3
:102B4000FFFFFFFFFFFFFFFFFFFFFFFFFFFFFFFF95
:102B5000FFFFFFFFFFFFFFFFFFFFFFFFFFFFFFFF85
:102B6000FFFFFFFFFFFFFFFFFFFFFFFFFFFFFFFF75
:102B7000FFFFFFFFFFFFFFFFFFFF0000000000005F
:102B80000000000000000000000000000000000045
:102B90000000000000000000000000000000000035
:102BA0000000000000000000000000000000000025
:102BB0000000000000000000000000000000000015
:102BC0000000000000000000000000000000000005
:102BD00000000000000000000000000000000000F5
:102BE00000000000000000000000000000000000E5
:102BF00000000000000000000000000000000000D5
:102C000000000000000000000000000000000000C4
:102C100000000000000000000000000000000000B4
:102C200000000000000000000000000000000000A4
:102C30000000000000000000000000000000000094
:102C40000000000000000000000000000000000084
:102C5000000000000000000000000707070707074A
:102C600007070707070707070707070707070707F4
:102C700007070707070707070707070707070707E4
:102C800007070707070707070707070707070707D4
:102C900007070707070707070707070707070707C4
:102CA0000707000000000000000000000000000016
:102CB0000000000000000000000000000000000014
:102CC0000000000000000000000000000000000004
:102CD00000000000000000000000000000000000F4
:102CE00000000000000000000000000000000000E4
:102CF00000000000000000000000000000000000D4
:102D000000000000000000000000000000000000C3
:102D100000000000000000000000000000000000B3
:102D200000000000000000000000000000000000A3
:102D30000000000000000000000000000000000093
:102D40000000000000000000000000000000000083
:102D500000301E1E0E82C2F2FE3E3E0E000002FE3B
:102D6000FEFEFE8280808082FEFEFE02000000E009
:102D7000F0FC0C0C0202020CFCF0F0E0000002FE81
:102D8000FE3E3EFCE0C08080022EDE02000080E0BD
:102D9000FC3C0E0E0202020C3C2C2C000000000039
:102DA000000002FEFEFE02020000020EFEFEFE0E0B
:102DB0000200000202FE3E7EFCE0E0C00002FE0EC9
:102DC00002020080F0FC3C3C0E0202020C0C3C00B3
:102DD0000000021E1E7EFEE2808080621E02000055
:102DE0000202FEFEFE020000000002FE0E000000D5
:102DF00000008070707EFEE0800000000000000295
:102E0000FEFE3E7EF0E080800002FE0E000000002C
:102E100000000000000000000000000000000000B2
:102E200000000000000000000000000000000000A2
:102E30000000000000000000000000000000000092
:102E40000000000000000000000000000000000082
:102E50000000000000000000000000000000000072
:102E600000000000808080808080808080808000E2
:102E70000000000000000000003038383E3F2721ED
:102E80002030303C0000203F3F3F3F20000000202A
:102E90003F3F3F20000000070F1F30302020203030
:102EA0001F1F1F070000203F3F30200001070F0FAA
:102EB0001E3E02000000030F1F1C30302021333F54
:102EC0001F3F3F01001C1C2C2C20203F3F0F000007
:102ED000000020303F3F3F3020000020203F2020D6
:102EE000000101070F3E3F00000000030F1F3C3CA4
:102EF000202021331F1F3F1B010000000020213F25
:102F00003F2121200000000000000F1F3F30202043
:102F10002020100F00000020382E23020202032F71
:102F20003F3E3E30200000203F3F202000030707A7
:102F30000F3E3F0000000000000000000000000005
:102F40000000000000000000000000000000000081
:102F50000000000000000000000000000000000071
:102F6000000000000000000000000000000202025B
:102F7000020206060606060E0F0F1F1F1F1F1F3F29
:102F80003F3F7F7F7F7F7FFFFFFFFFFFFFFFFFFF51
:102F9000FFFFFFFFFFFFFFFFFFFFFEFEFEFEFEFC49
:102FA000FCFCF8F8F8F8F0F0F0E0E0E0E0C0C0C0B9
:102FB000C0C0808080808080808080808080808091
:102FC0008080808080C0C0C0C0C0C0C0C0C0C0C041
:102FD000C0C0C0C0C0C0C0C0C0C0E0E0E0E0E060B1
:102FE0006060606060606060606060606060E0F0D1
:102FF000F0F0F0F0F0F0F0F0F0F0F0F0F0F0F0F0D1
:10300000F0F0F0F0F0F8F8F8F8F0F0F0F0E0E0E0D0
:10301000C0C0C0C0C08080808000000000000000F0
:1030200000000000000000000000000000000000A0
:103030000000000000000000000000000000000090
:103040000000000000000000000000000000000080
:103050000000000000000000000000000000000070
:103060000000000000000000000000000000000060
:103070000000000000000000000000000000000050
:103080000000000000000000000000000000000040
:103090000000000000000000000000000000000030
:1030A000000000000000000000000000000000011F
:1030B0000101010103030307070707070F0F0F0FA4
:1030C0000F0F0F0F0F0F0F0F0F0F0F0F0F07070728
:1030D0000707070707070707070707070707070780
:1030E00003030303030303030303030303030303B0
:1030F00003030303010101010101010101010101B8
:1031000001010101010101000000000000000000B8
:10311000000000000000010101010303030707078D
:1031200007070F0F0F0F1F1F1F3F3F3F3F3F7F7FBF
:103130007F7F7F7F7F7F7F7F7F7F7F7F7F7F7F7F9F
:103140007F7E7E7E7E7E7C7C7C383838383830309E
:103150003030303030303030303030383838383847
:103160003838181818181818181818181818181C9B
:103170001C1C1C1C1C1C1C1C1C1C1C1C1C1C1C1C8F
:103180001C1C3C3C3E3E3E3E3E3E7E7E7E7E7E7E27
:103190007EFEFEFEFCFCF8F8F0F0F0F0E0E0C0C0CF
:1031A000C0C080800000000000000000000000009F
:1031B000000000000000000000000000000000000F
:1031C000000000000000000000000000000020E0FF
:1031D000C080E0E0600000C0C0C04040C0C000004F
:1031E000000000E0E000000000C0C000000000E0BF
:1031F000E00000000000000000000000E0E000002F
:103200000000000000000000000000E0E0E0A0A0DE
:10321000A0A0A0A0A0E0E00000000000C0C04040CE
:1032200040404040404040404040C0C0000000009E
:1032300000000000000000E0E000000000000000CE
:10324000000000004040404040404040404040407E
:10325000C0C040000000000000E0E0E0000000000E
:103260000000E0E00000000000000000000000009E
:103270000000E0E0E00040C080000000000080802E
:103280008080808080E0E0E080808080808080801E
:103290008000C0C0C040C0C0C0C0C040404040C0AE
:1032A000C0C0000000000000000000C0C00000E03E
:1032B000E00000000000000000000000404040402E
:1032C0004141414141414141C3C30303030303075A
:1032D00006060404040008000000000000000000CE
:1032E00000000000000000000000000000000000DE
:1032F0000000003031313131FFFF3131313130FFE9
:10330000FFFF043FFBC00040407C3CFFFF04043C47
:1033100038FFFF043C3C38FFFF0000000000FEFEC9
:1033200002020202FFFF02020202FEFE0000000093
:10333000080808CBCBCB4A4A4E4E4A4A4ACBCB0868
:1033400008080800FFFF080909F9F909F9F909094E
:103350000908FFFF0000000000FFFFFF313131FFCF
:10336000FF31313131FFFF000000003030303030AC
:10337000303030FCFCFC363331303030303002023B
:1033800082FFFFFF723331F1F1F13F3FB1F1717113
:1033900001000002020282C27A3EFFFFFF3E7AC3B2
:1033A0008302020200000080C0C070FCFF4744445A
:1033B000444444FCFC0000000000FFFFFF0FFBF052
:1033C000FFFFFF32F2F232BFFFFF4000004070709B
:1033D000380C0783F070700003070C3838704040D9
:1033E0000000020202F2F232323232F2F202020241
:1033F000FFFF0000000000000000000000000000CF
:1034000000000000000000000000000000000000BC
:1034100000000000000000000000001018180C0759
:10342000030103030E0C003F3F3F0606030100208B
:1034300020301C0F03000000000F0F000000003FB1
:103440003F00000000000303010101013F3F0101B3
:1034500001010303000000000010180B03031232E7
:103460003E1E020202030B18100000003F3F14171B
:10347000171310101317141417173F3F0000000004
:10348000000707070202021F3F2222222227273CB1
:103490003C3C0000000000000010303F1F1F0000F7
:1034A0000000000000000111313F3F1F20203010BC
:1034B0001B1B0F0E1B3120202000040603030100FC
:1034C00000003F3F3F00000001030306040001012C
:1034D0000000003F3F0202020212323F1F000000C4
:1034E00000003F3F3F0303013F3F3F180803070D24
:1034F0001818101000000000081C1E0B090808080E
:10350000090F1E181800000000000000000F0F0433
:103510000404040F0F1030303F1F000000000000B3
:10352000000000000000000000000000000000009B
:10353000000000000000000000000000000000008B
:10354000000000000000000000000000000000007B
:10355000000000000000000000000000000000006B
:10356000000000000000000000000000000000005B
:103570000000002F000000000700070000147F1467
:103580007F1400242A7F2A12006264081323003665
:103590004955225000000503000000001C22410094
:1035A000000041221C000014083E08140008083ED8
:1035B0000808000000A060000008080808080000D3
:1035C00060600000002010080402003E5149453EA2
:1035D0000000427F400000426151494600214145C0
:1035E0004B31001814127F10002745454539003C27
:1035F0004A494930000171090503003649494936F5
:1036000000064949291E00003636000000005636E3
:1036100000000008142241000014141414140000C7
:103620004122140800020151090600324959513E55
:10363000007C1211127C007F49494936003E41410D
:103640004122007F4141221C007F49494941007FBE
:1036500009090901003E4149497A007F0808087FAD
:103660000000417F4100002040413F01007F0814DD
:103670002241007F40404040007F020C027F007FDB
:103680000408107F003E4141413E007F09090906C0
:10369000003E4151215E007F0919294600464949F3
:1036A00049310001017F0101003F4040403F001FC0
:1036B0002040201F003F4038403F0063140814633F
:1036C00000070870080700615149454300007F4129
:1036D000410000552A552A55000041417F00000451
:1036E000020102040040404040400000010204008A
:1036F000002054545478007F4844443800384444EF
:10370000442000384444487F00385454541800087A
:103710007E0901020018A4A4A47C007F0804047898
:103720000000447D4000004080847D00007F102820
:1037300044000000417F4000007C04180478007CB5
:103740000804047800384444443800FC2424241835
:103750000018242418FC007C080404080048545471
:10376000542000043F444020003C4040207C001C8A
:103770002040201C003C4030403C0044281028449D
:10378000001CA0A0A07C004464544C4414141414E5
:103790001414000000000000000000000000000001
:1037A000FC000000000002000000000C020C0200FF
:1037B00000000000000090D0BCD0BC9000030003CB
:1037C00000001824FE448C000302070201001824A4
:1037D000D8B04C80000300010201C038E438E0009A
:1037E00001020201020208060000000000000000C1
:1037F0000000000000F804020000000102040002C2
:1038000004F800000004020100009060F8609000DD
:103810000000010000002020FC202000000001002A
:10382000000000000000000008060000000020204A
:103830002020200000000000000000000000000028
:103840000002000000000080601C02000403000071
:103850000000F8040404F80001020202010000085C
:10386000FC00000000020302000018844424180039
:1038700003020202020008042424D800010202020A
:10388000010040B088FC80000000000302003C24DE
:103890002424C400010202020100F824242CC000E8
:1038A0000102020201000C04E41C040000000300F9
:1038B0000000D8242424D800010202020100384468
:1038C0004444F80000030202010000001000000060
:1038D00000000200000000002000000000000600C0
:1038E00000000020508804020000000001029090B7
:1038F000909090000000000000000002048850201A
:103900000002010000001804C42418000000020096
:103910000000F804E494F80001020202020000E052
:103920009CF0800002030000030204FC2424D80061
:10393000020302020100F80404040C000102020266
:10394000010004FC0404F80002030202010004FC6C
:1039500024740C0002030202030004FC24740C0013
:10396000020302000000F0080444CC4000010202FF
:10397000010004FC2020FC040203000003020404F4
:10398000FC040400020203020200000404FC04041C
:1039900006040403000004FC24D00C04020302000B
:1039A000030204FC04000000020302020203FC3CC8
:1039B000C03CFC0003000300030004FC30C4FC0412
:1039C000020302000300F8040404F80001020202EA
:1039D000010004FC24241800020302000000F88403
:1039E0008404F80001020207050004FC2464980026
:1039F000020302000302182424448C000302020282
:103A000001000C04FC040C0000020302000004FC92
:103A10000000FC04000102020100047C80E01C04A0
:103A20000000030000001CE03CE01C000003000359
:103A30000000049C609C0400020300030200041CBC
:103A4000E01C04000002030200000C84641C04005B
:103A50000203020203000000FE020200000007044D
:103A60000400000E30C0000000000001020000024F
:103A700002FE00000004040700000004020400002D
:103A80000000000000000000000000000808080816
:103A900008080000020000000000000000000040D4
:103AA000A0A0C00000010202030204FC2020C0000C
:103AB00000030202010000C0202060000001020299
:103AC000020000C02024FC0000010202030200C02A
:103AD000A0A0C0000001020202000020F82424047B
:103AE0000002030202000040A0A0602000070A0AB2
:103AF0000A0404FC2020C00002030200030200208C
:103B0000E4000000000203020000000020E40000C6
:103B100008080807000004FC80E0202002030200DF
:103B200003020404FC000000020203020200E02081
:103B3000E020C00003000300030020E02020C000BC
:103B400002030200030200C02020C00000010202A4
:103B5000010020E02020C000080F0A02010000C080
:103B60002020E0000001020A0F0820E04020200091
:103B70000203020000000060A0A020000002020278
:103B800003000020F820000000000102020020E0F5
:103B90000020E00000010202030220E020806020FB
:103BA0000000030100006080E0806000000300036B
:103BB000000020608060200002030003020020E07B
:103BC000208060200808070100000020A06020007D
:103BD000000203020200000020DE020000000007D5
:103BE0000400000000FF00000000000F00000002C1
:103BF000DE200000000407000000020102040402AD
:103C000000000000000000000000000000000000B4
:103C1000000000000000000000F8000000000000AC
:103C200000333000000000100C06100C06000000ED
:103C300000000000000040C07840C0784000043F11
:103C400004043F040400007088FC083000000018E1
:103C500020FF211E0000F008F000E0180000002105
:103C60001C031E211E0000F00888700000001E21A9
:103C700023241927211010160E0000000000000058
:103C8000000000000000000000E018040200000036
:103C900000071820400000020418E0000000004067
:103CA000201807000000404080F0804040000202E1
:103CB000010F01020200000000F0000000000101FD
:103CC000011F01010100000000000000000080B0A1
:103CD0007000000000000000000000000000000173
:103CE000010101010101000000000000000000309E
:103CF0003000000000000000000080601804006038
:103D000018060100000000E010080810E000000F95
:103D1000102020100F00001010F8000000000020FC
:103D2000203F202000000070080808887000003044
:103D300028242221300000300888884830000018EC
:103D4000202020110E000000C02010F80000000705
:103D50000424243F240000F808888808080000197B
:103D6000212020110E0000E0108888180000000FAC
:103D7000112020110E0000380808C8380800000083
:103D8000003F000000000070880808887000001CD8
:103D9000222121221C0000E010080810E000000091
:103DA000312222110F00000000C0C00000000000FE
:103DB0000030300000000000008000000000000023
:103DC000806000000000000080402010080000011A
:103DD00002040810200040404040404040000404DD
:103DE00004040404040000081020408000000020A7
:103DF000100804020100007048080808F0000000E4
:103E0000003036010000C030C828E810E000071874
:103E1000272423140B000000C038E0000000203CE1
:103E200023020227382008F8888888700000203F85
:103E3000202020110E00C03008080808380007189C
:103E400020202010080008F808080810E000203F93
:103E5000202020100F0008F88888E8081000203F74
:103E600020202320180008F88888E8081000203F48
:103E7000200003000000C0300808083800000718C0
:103E80002020221E020008F808000008F808203F41
:103E9000210101213F20000808F808080000002047
:103EA000203F2020000000000808F8080800C0801B
:103EB00080807F00000008F888C028180800203F94
:103EC00020012638200008F8080000000000203FEC
:103ED00020202020300008F8F800F8F80800203FE3
:103EE000003F003F200008F830C00008F808203FDD
:103EF000200007183F00E01008080810E0000F102D
:103F0000202020100F0008F808080808F000203FC3
:103F1000210101010000E01008080810E0000F185E
:103F2000242438504F0008F8888888887000203F83
:103F30002000030C30200070880808083800003882
:103F4000202121221C00180808F808081800000089
:103F5000203F2000000008F808000008F808001FB3
:103F6000202020201F000878880000C838080000A2
:103F700007380E010000F80800F80008F800033CBC
:103F80000700073C03000818688080681808203084
:103F90002C03032C30200838C800C8380800000063
:103FA000203F2000000010080808C838080020380A
:103FB000262120201800000000FE0202020000005E
:103FC000007F40404000000C30C0000000000000B6
:103FD00000010638C00000020202FE00000000409E
:103FE00040407F00000000000402020204000000C4
:103FF00000000000000000000000000000008080C1
:1040000080808080808000020204000000000000A8
:104010000000000000000000808080800000001987
:10402000242222223F2008F8008080000000003F68
:10403000112020110E000000008080800000000E82
:10404000112020201100000000808088F800000E60
:10405000112020103F200000808080800000001F81
:10406000222222221300008080F0888888180020F5
:10407000203F202000000000808080808000006BB6
:1040800094949493600008F8008080800000203FA2
:10409000210000203F2000809898000000000020B0
:1040A000203F20200000000000809898000000C001
:1040B0008080807F000008F8000080808000203F22
:1040C00024022D302000000808F800000000002025
:1040D000203F202000008080808080808000203F62
:1040E00020003F20003F8080008080800000203F33
:1040F000210000203F200000808080800000001F01
:10410000202020201F00808000808000000080FF91
:10411000A12020110E000000008080808000000E91
:10412000112020A0FF8080808000808080002020DF
:104130003F2120000100000080808080800000334B
:10414000242424241900008080E0808000000000E6
:10415000001F202000008080000000808000001FE1
:10416000202020103F20808080000080808000017F
:104170000E300806010080800080008080800F30B3
:104180000C030C300F000080800080808000002035
:10419000312E0E3120008080800000808080808160
:1041A0008E701806010000808080808080000021D1
:1041B000302C2221300000000000807C0202000030
:1041C0000000003F404000000000FF000000000031
:1041D0000000FF0000000002027C800000000040A0
:1041E000403F00000000000601010202040400003C
:1041F00000000000000000000000000000000000BF
:1042000000000000000000000000000000000000AE
:10421000000000000000000000000000000000F0AE
:10422000F0F0000000000000000000017F0100002D
:10423000000000000000001C1C1C0000000000002A
:104240008060301C8C60301C0C00000000000000FE
:10425000000000000000000000000000000000005E
:104260000000000000E00000000000E00000008608
:10427000E69F86868686E69F860000011F01010173
:1042800001011F010100000080C06020F820E0C093
:104290000000000003070C18FF70E181000000001F
:1042A000070F10107F100F07000080602060800053
:1042B0000000E02000000F3020309F70DC3710300D
:1042C000C0000000100E03000718101807000000BF
:1042D000C02020E0C0000000000080E01F38E88718
:1042E00003C43C040000070F1810100B070D10103A
:1042F000080000808C4C3800000000000000000026
:1043000000000000000000000000000000000000AD
:1043100000000000000000000000000080E0300805
:1043200004000000000000FEFF010000000000008B
:1043300000000000030F1820400000040830E08057
:104340000000000000000000000001FFFE0000006F
:104350000000004020180F030000000000000000D3
:1043600000000000C00000000000004266663C182B
:10437000FF183C66664200000000000003000000D9
:10438000000000000000000080000000000000109D
:1043900010101010FF10101010100000000000008E
:1043A000030000000000000000000000000000000A
:1043B000000000000000000000000000000000807D
:1043C0008C4C3800000000000000000000000000DD
:1043D000000000000000001010101010101010104D
:1043E00010000000000000000000000000000000BD
:1043F00000000000000000000000000000000000BD
:1044000000000000000000001C1C1C000000000058
:1044100000000000000000000000E0380C00000078
:10442000000080701C03000000000060380E0100D6
:10443000000000000000000080C060202060C080FC
:10444000000000FEFF010000000001FFFE0000016F
:10445000070E181010180E0701000000808080C0A1
:10446000E000000000000000000000FFFF0000006E
:10447000000000001010101F1F101010000000801E
:10448000402020202060C080000000030300804006
:1044900020381F070000001C1A1918181818181FB8
:1044A00000000080C020202060C0800000000003C9
:1044B00003001010182FE780000000070F101010E5
:1044C00010180F070000000000000000C0E0F0001E
:1044D000000000C0B088868180FFFF80800000005F
:1044E00000000010101F1F1010000000E06060604E
:1044F00060606060000000003F1008080818F0E0ED
:10450000000000070B101010101C0F03000000002B
:1045100080C040202020E0C0000000FCFF211008E7
:10452000080818F0E0000001070C18101010080F20
:1045300003000000C0E06060606060E060000000B8
:1045400003000000E0180700000000000000001F4A
:104550001F00000000000080C0602020202060C0FC
:1045600080000087EF2C1818303068CF83000007D8
:104570000F0810101010180F07000000C0C02020F6
:104580002020C0800000001F3F604040402010FFFE
:10459000FE0000000C1C101010080F0300000000AB
:1045A0000000000000000000000000000000000EFD
:1045B0000E0E0000000000000000001C1C1C00008B
:1045C00000000000000000000000000000000000EB
:1045D0000000000C0C00000000000000000000586B
:1045E00038000000000000000000000000804020B3
:1045F00010000000102844820100000000000000AC
:10460000000000000102040810000000000000008B
:1046100000000000000000848484848484848484F6
:104620008400000000000000000000000000000006
:10463000102040800000000000000000000000008A
:10464000018244281000000010080402010000004C
:10465000000000C020201010101030E0C000000347
:10466000030000F010080C070300000000001C1CF1
:104670001C0000000000000000C04060202020401E
:10468000C00000FCFF01F00E03C1FE03807F0001AB
:10469000070E08111110110904020000000080E04B
:1046A000E000000000000000807C4340477FF8806D
:1046B000000010181F1000000000131F1C1020E045
:1046C000E02020202060C080000000FFFF101010BC
:1046D00010182FE78000101F1F1010101010180F57
:1046E0000700000080C0402020202060E00000FC87
:1046F000FF0100000000000001000001070E18107B
:1047000010100804030020E0E02020202040C0809A
:10471000000000FFFF000000000001FFFE00101F6E
:104720001F10101018080E07010020E0E0202020C4
:1047300020202060800000FFFF101010107C00007F
:104740000000101F1F10101010101018060020E09D
:10475000E020202020206060800000FFFF1010106B
:10476000107C00000100101F1F100000000000005E
:104770000000000080C06020202040E0000000FC1D
:10478000FF0100004040C0C140400001070E18106A
:1047900010100F0F000020E0E0200000000020E0DB
:1047A000E02000FFFF101010101010FFFF00101F7E
:1047B0001F1000000000101F1F100000202020E02C
:1047C000E020202000000000000000FFFF000000AB
:1047D000000000001010101F1F101010000000003B
:1047E0000000202020E0E020202000000000000049
:1047F00000FFFF0000000060E0808080C07F3F007D
:10480000000020E0E020000020A06020200000FF49
:10481000FF30187CE3C000000000101F1F100000D4
:1048200001131F1C181020E0E02000000000000011
:10483000000000FFFF000000000000000000101F4B
:104840001F10101010101018060020E0E0E000000B
:104850000000E0E0E02000FF013FFEC0E01E01FF9D
:10486000FF00101F1000031F0300101F1F1020E087
:10487000E0C0000000000020E02000FF0003071C53
:1048800078E08000FF00101F100000000000030F00
:104890001F00000080C060202060C080000000FE7B
:1048A000FF010000000000FFFE000001070E1810CD
:1048B00010180C07010020E0E0202020202060C01C
:1048C000800000FFFF2020202020301F0F00101F3D
:1048D0001F100000000000000000000080C06020E9
:1048E0002060C080000000FEFF010000000000FF0B
:1048F000FE000001070E1111133C7C67210020E02F
:10490000E0202020202060C0800000FFFF10103039
:10491000F0D0080F0700101F1F10000000030F1C2D
:1049200010100080C060202020204040E0000007E0
:104930000F0C1818303060E08100001F0C081010B8
:104940001010180F07008060202020E0E0202020B9
:1049500060800100000000FFFF0000000001000077
:104960000000101F1F100000000020E0E0200000E9
:1049700000000020E02000FFFF0000000000000019
:10498000FF0000070F18101010101008070020601B
:10499000E0E02000000020E060200000077FF880B9
:1049A00000807C03000000000000071F1C070000BF
:1049B000000020E0E02000E0E0200020E0200007F0
:1049C000FFF8E01FFFFCE01F00000000031F0300D2
:1049D000011F03000000002060E0A0000020E06054
:1049E0002000000000038F7CF8C6010000000010CA
:1049F000181E130001171F1810002060E0E02000AF
:104A0000000020E06020000001073EF8E0180700E9
:104A1000000000000010101F1F1010000000008098
:104A20006020202020A0E0E0200000000000C0F076
:104A30003E0F0300000000101C1F1710101010186C
:104A400006000000000000FC040404040400000050
:104A5000000000FF00000000000000000000007FD8
:104A6000404040404000000010E000000000000016
:104A7000000000000000031C608000000000000037
:104A80000000000000030C70800000000404040417
:104A900004FC0000000000000000000000FF000017
:104AA0000000000040404040407F00000000000047
:104AB0000010080C040C08100000000000000000AA
:104AC00000000000000000000000000000000000E6
:104AD00000000000000000000000000000000000D6
:104AE00000000000000000000000808080808080C6
:104AF000808080808080000000040408080000009E
:104B000000000000000000000000000000000000A5
:104B10000000000000000000000000000000000095
:104B2000000000000000000098D844642424FCF831
:104B30000000000F1F18101010081F1F1018002071
:104B4000E0F000000000000000000000FFFF180877
:104B500004040CF8F00000001F0F18101010180FBC
:104B6000030000000000000000000000000000E062
:104B7000F8180404043C3800000000030F0C101067
:104B80001010080600000000000000000020E0F007
:104B9000000000E0F81C04040408FFFF000000030C
:104BA0000F18101010081F0F080000000000000070
:104BB0000000000000000000E0F8484444444C7845
:104BC00070000000030F0C18101010080400000003
:104BD000000080C0602020E0C00000040404FFFF4B
:104BE000040404040000000010101F1F1010100027
:104BF00000000000000000000000000000000000B5
:104C000070F88C04048CF874040C007076CF8D8DD1
:104C10008D89C87870000020E0F0000000000000DE
:104C200000000000FFFF08040404FCF8000000106E
:104C30001F1F100000101F1F100000000000006068
:104C40006000000000000000040404FCFC00000000
:104C5000000000001010101F1F10101000000000B6
:104C6000000000000060600000000000000004047C
:104C700004FCFC0000000000C0C08080C07F3F003A
:104C800000000020E0F00000000000000000000034
:104C9000FFFF80C0F41C0404000000101F1F11005F
:104CA000031F1C1010000000202020E0F000000076
:104CB00000000000000000FFFF00000000000000F6
:104CC0001010101F1F101010000000000000000046
:104CD00000000000000004FCFC0804FCFC0804FCCC
:104CE000FC00101F1F10001F1F10001F1F100000CE
:104CF000000000000000000000000004FCFC0808A8
:104D00000404FCF8000000101F1F100000101F1FFB
:104D1000100000000000000000000000000000E0A3
:104D2000F0180C04040C18F0E00000030F0C101035
:104D300010100C0F03000000000000000000000035
:104D400000000004FCFC080404040CF8F0000080DF
:104D5000FFFF889010101C0F0300000000000000EF
:104D600000000000000000E0F81C04040408F8FC47
:104D7000000000030F1810109088FFFF8000000053
:104D800000000000000000000000040404FCFC100F
:104D90000804040C0C001010101F1F10101000004D
:104DA0000000000000000000000000000000000003
:104DB0003078CCC48484840C1C0000001E181010B1
:104DC0001011190F06000000000000C000000000D4
:104DD000000000040404FFFF0404040000000000BD
:104DE00000000F1F1010100C000000000000000059
:104DF0000000000000000004FCFE00000004FCFEB7
:104E0000000000000F1F181010081F0F08000000FE
:104E10000000000000000000000000040C3CFCC486
:104E20000000C43C0C0400000000010F1E0E010035
:104E30000000000000000000000000000000043C32
:104E4000FCC400E47CFC84807C040000071F070095
:104E500000071F0700000000000000000000000025
:104E600000000004041C7CE4C0341C040400001096
:104E7000101C1601131F1C18100000000000000079
:104E800000000000000000040C3CFCC400C43C0412
:104E900004000000C080C1370E01000000000000C7
:104EA0000000000000000000000000001C0404C41A
:104EB000F47C1C0400000000101C1F1711101018B7
:104EC0000E0000000000000000F80C0400000000CC
:104ED0000000001028EF00000000000000000000AB
:104EE000003F60400000000000000000FF000000E4
:104EF0000000000000000000FF00000000000000B3
:104F000000000000FF00000000000000040CF8009A
:104F100000000000000000000000EF28100000006A
:104F20000000000040603F0000000000000000188A
:104F300006020204081020203008000000000000D3
:104F40000000000000000000000000000000000061
:104F500000000000F010101010FF10101010F000F2
:104F6000000000000F04040404FF040404040F0004
:104F700000004040405F555555755555555F4040C0
:104F800040000040200F094989790909090F204094
:104F9000000000FE02424ACA4A4ACA4A4A4202FE87
:104FA000000000FF40504C4340404F50505C40FFD9
:104FB00000000000F888888888FF88888888F800C2
:104FC000000000001F080808087F888888889F80E4
:104FD000F00080828282828282E2A2928A8682802D
:104FE0008000000000000040807F00000000000002
:104FF0000000101010FF109008888888FF888888AB
:1050000008000444827F01808040432C10284681A0
:1050100080000010101010D030FF30D0121C101083
:10502000000010080402010000FF00000102040853
:10503000100004040484E43C2724242424E404040D
:10504000040004020100FF0909090949897F0000E1
:10505000000000FE225A8600FE9292929292FE007A
:10506000000000FF04080700FF4020030C14224149
:105070004000008040201806800007182040800073
:105080000000010020702826212020243860000123
:105090000100001012929292929292121202FE005D
:1050A00000000000003F101010103F0040807F0003
:1050B0000000000000C080808080808080FC8480B0
:1050C0008080808080C0C0000000000000FF7F4022
:1050D0004040404040FF40404040404040FF7F0053
:1050E000000000000000000000000000007F7000D1
:1050F00000000000000000000000000000000000B0
:10510000000000000000000000FCF80000000000AB
:105110000000000000000000000000000000FFFE92
:10512000020202020202020202FFFF020202020265
:1051300002020202FF0300000000000000001F1F27
:10514000040404040404040404FFFF040404040429
:10515000040404041F000000000000000000000020
:105160000000000000000000007F3F000000000081
:10517000000000000000000000000000000000002F
:10518000000000000000000000000000000000001F
:1051900000000000000000F8F8F0F07020000000AF
:1051A00000000000000000000000000000000000FF
:1051B00000000000000000000000000000000000EF
:1051C000000080000000000000000000000000005F
:1051D00000000000000000FFFFFFFF0000000000D3
:1051E00000000000000000000000000000008080BF
:1051F00000000000000000000000000000000000AF
:10520000000000FFFFFE0606060606060606060666
:1052100006060606060606FFFFFFFF06060606064A
:1052200006060606060606060606060606FFFFFF33
:10523000FF07020000000000000000000000000066
:10524000000000FFFFFF0000000000000000000061
:1052500000000000000000FFFFFFFF000000000052
:1052600000000000000000000000000000FFFFFF41
:10527000FF0000000000000000000000000000002F
:10528000000000FFFFFF1818181818181818181831
:1052900018181818181818FFFFFFFF1818181818F2
:1052A00018181818181818181818181818FFFFFFC9
:1052B000FF000000000000000000000000000000EF
:1052C00000000201010000000000000000000000DA
:1052D00000000000000000FFFFFFFF0000000000D2
:1052E00000000000000000000000000000010100BC
:1052F00000000000000000000000000000000000AE
:10530000000000000000000000000000000000009D
:1053100000000000000000FFFFFFFF000000000091
:10532000000000000000000000000000000000007D
:10533000000000000000000000000000000000006D
:10534000000000000000000000000000000000005D
:10535000000000000000001F1F0F0F0000000000F1
:10536000000000000000000000000000000000003D
:105370000000000000000000000000009C53000836
:105380000000002030000000C4010008CC530008D9
:1053900030000020F8190000E0010008007A030A3C
:1053A00000000000000000000102030406070809D5
:1053B00000000000000000000000000000000102EA
:0C53C000030401020304060708090000B2
:040000050800018965
:00000001FF
